{
  "contractName": "Acknowledger",
  "abi": [
    {
      "anonymous": false,
      "inputs": [
        {
          "indexed": false,
          "name": "a",
          "type": "uint256"
        }
      ],
      "name": "AcknowledgeFoo",
      "type": "event"
    },
    {
      "anonymous": false,
      "inputs": [
        {
          "indexed": false,
          "name": "a",
          "type": "uint256"
        }
      ],
      "name": "AcknowledgeBarSingle",
      "type": "event"
    },
    {
      "anonymous": false,
      "inputs": [
        {
          "indexed": false,
          "name": "a",
          "type": "uint256"
        },
        {
          "indexed": false,
          "name": "b",
          "type": "uint256"
        }
      ],
      "name": "AcknowledgeBarDouble",
      "type": "event"
    },
    {
      "constant": false,
      "inputs": [
        {
          "name": "a",
          "type": "uint256"
        }
      ],
      "name": "foo",
      "outputs": [],
      "payable": false,
      "stateMutability": "nonpayable",
      "type": "function"
    },
    {
      "constant": false,
      "inputs": [
        {
          "name": "a",
          "type": "uint256"
        }
      ],
      "name": "bar",
      "outputs": [],
      "payable": false,
      "stateMutability": "nonpayable",
      "type": "function"
    },
    {
      "constant": false,
      "inputs": [
        {
          "name": "a",
          "type": "uint256"
        },
        {
          "name": "b",
          "type": "uint256"
        }
      ],
      "name": "bar",
      "outputs": [],
      "payable": false,
      "stateMutability": "nonpayable",
      "type": "function"
    }
  ],
  "bytecode": "0x608060405234801561001057600080fd5b5061017f806100206000396000f3006080604052600436106100565763ffffffff7c01000000000000000000000000000000000000000000000000000000006000350416630423a132811461005b5780632fbebd3814610075578063ae42e9511461008d575b600080fd5b34801561006757600080fd5b506100736004356100a8565b005b34801561008157600080fd5b506100736004356100de565b34801561009957600080fd5b50610073600435602435610114565b6040805182815290517f4de9c09c5ee40bc661dafe1132e59f004daba2595ba3afad6091675ea24081859181900360200190a150565b6040805182815290517f5cf7cc5dbdb5c279977e2fcbb13d851878260bbbcd621e6805ba651b514ecffc9181900360200190a150565b604080518381526020810183905281517fd7634158629a3003994809e2eaeea6c34ec898d16a4caa76a37e87e308cbe084929181900390910190a150505600a165627a7a723058200e0ec5806d2887ba3471e0cd5981f7be8957959e9012a8a7a905c8405d159de70029",
  "source": "pragma solidity ^0.4.24;\n\ncontract Acknowledger {\n    event AcknowledgeFoo(uint256 a);\n    event AcknowledgeBarSingle(uint256 a);\n    event AcknowledgeBarDouble(uint256 a, uint256 b);\n\n    function foo(uint256 a) public {\n        emit AcknowledgeFoo(a);\n    }\n\n    function bar(uint256 a) public {\n        emit AcknowledgeBarSingle(a);\n    }\n\n    function bar(uint256 a, uint256 b) public {\n        emit AcknowledgeBarDouble(a, b);\n    }\n}\n",
  "sourcePath": "/home/ubuntu/Lendflo-LDF-ERC223/contracts/Acknowledger.sol",
  "compiler": {
    "name": "solc",
    "version": "0.4.24+commit.e67f0147.Linux.g++"
  },
  "schemaVersion": "3.0.1",
  "updatedAt": "2019-02-12T17:53:42.186Z",
  "devdoc": {
    "methods": {}
  },
  "userdoc": {
    "methods": {}
  }
}