{
  "contractName": "Crowdfunding",
  "abi": [
    {
      "anonymous": false,
      "inputs": [
        {
          "indexed": false,
          "name": "",
          "type": "address"
        },
        {
          "indexed": false,
          "name": "",
          "type": "uint256"
        },
        {
          "indexed": false,
          "name": "",
          "type": "bytes"
        }
      ],
      "name": "tokensReceived",
      "type": "event"
    },
    {
      "constant": false,
      "inputs": [
        {
          "name": "_from",
          "type": "address"
        },
        {
          "name": "_value",
          "type": "uint256"
        },
        {
          "name": "_data",
          "type": "bytes"
        }
      ],
      "name": "tokenFallback",
      "outputs": [],
      "payable": true,
      "stateMutability": "payable",
      "type": "function"
    }
  ],
  "bytecode": "0x608060405234801561001057600080fd5b50610136806100206000396000f3006080604052600436106100405763ffffffff7c0100000000000000000000000000000000000000000000000000000000600035041663c0ee0b8a8114610045575b600080fd5b6100766004803573ffffffffffffffffffffffffffffffffffffffff16906024803591604435918201910135610078565b005b7fd031426315484e71acc93f2e21b77aea8060f6508fd837622495e98fe44993d784848484604051808573ffffffffffffffffffffffffffffffffffffffff1673ffffffffffffffffffffffffffffffffffffffff168152602001848152602001806020018281038252848482818152602001925080828437604051920182900397509095505050505050a1505050505600a165627a7a7230582079ac05471d7d9d5a8c8528fb21e625b9b0e6edc4207ab532b3c2e80399a218f50029",
  "source": "pragma solidity ^0.4.24;\n\nimport \"./IReceiver.sol\";\n    \ncontract Crowdfunding is IReceiver {\n    \n    event tokensReceived(address, uint, bytes);\n\n    /**\n     * @dev called on tokenFallback, registers the investment, and mints the LCT to the investor if the amount invested does not cause the loan to be over funded\n     * @param _value the amount of token received by the contract\n     * @param _from the address of the investor\n     * @param _data extra data send with transaction\n     */\n    function tokenFallback(address _from, uint _value, bytes _data) external payable{\n        emit tokensReceived(_from, _value, _data);\n    }\n}",
  "sourcePath": "/home/ubuntu/Lendflo-LDF-ERC223/contracts/ExampleReceiver.sol",
  "compiler": {
    "name": "solc",
    "version": "0.4.24+commit.e67f0147.Linux.g++"
  },
  "schemaVersion": "3.0.1",
  "updatedAt": "2019-02-12T17:53:42.206Z",
  "devdoc": {
    "methods": {
      "tokenFallback(address,uint256,bytes)": {
        "details": "called on tokenFallback, registers the investment, and mints the LCT to the investor if the amount invested does not cause the loan to be over funded",
        "params": {
          "_data": "extra data send with transaction",
          "_from": "the address of the investor",
          "_value": "the amount of token received by the contract"
        }
      }
    }
  },
  "userdoc": {
    "methods": {}
  }
}