{
  "contractName": "Crowdfunding",
  "abi": [
    {
      "anonymous": false,
      "inputs": [
        {
          "indexed": false,
          "name": "",
          "type": "address"
        },
        {
          "indexed": false,
          "name": "",
          "type": "uint256"
        },
        {
          "indexed": false,
          "name": "",
          "type": "bytes"
        }
      ],
      "name": "tokensReceived",
      "type": "event"
    },
    {
      "constant": false,
      "inputs": [
        {
          "name": "_from",
          "type": "address"
        },
        {
          "name": "_value",
          "type": "uint256"
        },
        {
          "name": "_data",
          "type": "bytes"
        }
      ],
      "name": "tokenFallback",
      "outputs": [],
      "payable": true,
      "stateMutability": "payable",
      "type": "function"
    }
  ],
  "bytecode": "0x608060405234801561001057600080fd5b5061015d806100206000396000f300608060405260043610610041576000357c0100000000000000000000000000000000000000000000000000000000900463ffffffff168063c0ee0b8a14610046575b600080fd5b61009c600480360381019080803573ffffffffffffffffffffffffffffffffffffffff1690602001909291908035906020019092919080359060200190820180359060200191909192939192939050505061009e565b005b7fd031426315484e71acc93f2e21b77aea8060f6508fd837622495e98fe44993d784848484604051808573ffffffffffffffffffffffffffffffffffffffff1673ffffffffffffffffffffffffffffffffffffffff16815260200184815260200180602001828103825284848281815260200192508082843782019150509550505050505060405180910390a1505050505600a165627a7a7230582083dbd8ef3fb50a7c514b672969801a8a40beee22bf528b818a02da3e3ef55ba10029",
  "source": "pragma solidity ^0.4.24;\r\n\r\nimport \"./IReceiver.sol\";\r\n    \r\ncontract Crowdfunding is IReceiver {\r\n    \r\n    event tokensReceived(address, uint, bytes);\r\n\r\n    /**\r\n     * @dev called on tokenFallback, registers the investment, and mints the LCT to the investor if the amount invested does not cause the loan to be over funded\r\n     * @param _value the amount of token received by the contract\r\n     * @param _from the address of the investor\r\n     * @param _data extra data send with transaction\r\n     */\r\n    function tokenFallback(address _from, uint _value, bytes _data) external payable{\r\n        emit tokensReceived(_from, _value, _data);\r\n    }\r\n}",
  "sourcePath": "C:\\Users\\Lendflo\\Documents\\GitHub\\Lendflo-Commodo\\open-sourcing\\contracts\\ExampleReceiver.sol",
  "compiler": {
    "name": "solc",
    "version": "0.4.24+commit.e67f0147.Emscripten.clang"
  },
  "schemaVersion": "2.0.1",
  "updatedAt": "2018-12-13T10:38:16.913Z"
}