{
  "contractName": "Crowdfunding",
  "abi": [
    {
      "anonymous": false,
      "inputs": [
        {
          "indexed": false,
          "name": "",
          "type": "address"
        },
        {
          "indexed": false,
          "name": "",
          "type": "uint256"
        },
        {
          "indexed": false,
          "name": "",
          "type": "bytes"
        }
      ],
      "name": "tokensReceived",
      "type": "event"
    },
    {
      "constant": false,
      "inputs": [
        {
          "name": "_from",
          "type": "address"
        },
        {
          "name": "_value",
          "type": "uint256"
        },
        {
          "name": "_data",
          "type": "bytes"
        }
      ],
      "name": "tokenFallback",
      "outputs": [],
      "payable": true,
      "stateMutability": "payable",
      "type": "function"
    }
  ],
  "bytecode": "0x608060405234801561001057600080fd5b5061015d806100206000396000f300608060405260043610610041576000357c0100000000000000000000000000000000000000000000000000000000900463ffffffff168063c0ee0b8a14610046575b600080fd5b61009c600480360381019080803573ffffffffffffffffffffffffffffffffffffffff1690602001909291908035906020019092919080359060200190820180359060200191909192939192939050505061009e565b005b7fd031426315484e71acc93f2e21b77aea8060f6508fd837622495e98fe44993d784848484604051808573ffffffffffffffffffffffffffffffffffffffff1673ffffffffffffffffffffffffffffffffffffffff16815260200184815260200180602001828103825284848281815260200192508082843782019150509550505050505060405180910390a1505050505600a165627a7a723058204c6e12b1c5d29da56a1d3f4083ea2b4f258483f53de9881f4bd236884a291c550029",
  "source": "pragma solidity ^0.4.24;\n\nimport \"./IReceiver.sol\";\n    \ncontract Crowdfunding is IReceiver {\n    \n    event tokensReceived(address, uint, bytes);\n\n    /**\n     * @dev called on tokenFallback, registers the investment, and mints the LCT to the investor if the amount invested does not cause the loan to be over funded\n     * @param _value the amount of token received by the contract\n     * @param _from the address of the investor\n     * @param _data extra data send with transaction\n     */\n    function tokenFallback(address _from, uint _value, bytes _data) external payable{\n        emit tokensReceived(_from, _value, _data);\n    }\n}",
  "sourcePath": "/home/ec2-user/Lendflo-LDF-ERC223/contracts/ExampleReceiver.sol",
  "compiler": {
    "name": "solc",
    "version": "0.4.24+commit.e67f0147.Emscripten.clang"
  },
  "schemaVersion": "2.0.1",
  "updatedAt": "2018-12-21T10:19:39.970Z"
}