{
  "contractName": "ERC223Mintable",
  "abi": [
    {
      "constant": false,
      "inputs": [
        {
          "name": "spender",
          "type": "address"
        },
        {
          "name": "value",
          "type": "uint256"
        }
      ],
      "name": "approve",
      "outputs": [
        {
          "name": "",
          "type": "bool"
        }
      ],
      "payable": false,
      "stateMutability": "nonpayable",
      "type": "function"
    },
    {
      "constant": true,
      "inputs": [],
      "name": "totalSupply",
      "outputs": [
        {
          "name": "",
          "type": "uint256"
        }
      ],
      "payable": false,
      "stateMutability": "view",
      "type": "function"
    },
    {
      "constant": false,
      "inputs": [
        {
          "name": "from",
          "type": "address"
        },
        {
          "name": "to",
          "type": "address"
        },
        {
          "name": "value",
          "type": "uint256"
        }
      ],
      "name": "transferFrom",
      "outputs": [
        {
          "name": "",
          "type": "bool"
        }
      ],
      "payable": false,
      "stateMutability": "nonpayable",
      "type": "function"
    },
    {
      "constant": false,
      "inputs": [
        {
          "name": "spender",
          "type": "address"
        },
        {
          "name": "addedValue",
          "type": "uint256"
        }
      ],
      "name": "increaseAllowance",
      "outputs": [
        {
          "name": "",
          "type": "bool"
        }
      ],
      "payable": false,
      "stateMutability": "nonpayable",
      "type": "function"
    },
    {
      "constant": true,
      "inputs": [
        {
          "name": "owner",
          "type": "address"
        }
      ],
      "name": "balanceOf",
      "outputs": [
        {
          "name": "",
          "type": "uint256"
        }
      ],
      "payable": false,
      "stateMutability": "view",
      "type": "function"
    },
    {
      "constant": false,
      "inputs": [],
      "name": "renounceOwnership",
      "outputs": [],
      "payable": false,
      "stateMutability": "nonpayable",
      "type": "function"
    },
    {
      "constant": true,
      "inputs": [],
      "name": "owner",
      "outputs": [
        {
          "name": "",
          "type": "address"
        }
      ],
      "payable": false,
      "stateMutability": "view",
      "type": "function"
    },
    {
      "constant": true,
      "inputs": [],
      "name": "isOwner",
      "outputs": [
        {
          "name": "",
          "type": "bool"
        }
      ],
      "payable": false,
      "stateMutability": "view",
      "type": "function"
    },
    {
      "constant": false,
      "inputs": [
        {
          "name": "account",
          "type": "address"
        }
      ],
      "name": "addMinter",
      "outputs": [],
      "payable": false,
      "stateMutability": "nonpayable",
      "type": "function"
    },
    {
      "constant": false,
      "inputs": [],
      "name": "renounceMinter",
      "outputs": [],
      "payable": false,
      "stateMutability": "nonpayable",
      "type": "function"
    },
    {
      "constant": false,
      "inputs": [
        {
          "name": "spender",
          "type": "address"
        },
        {
          "name": "subtractedValue",
          "type": "uint256"
        }
      ],
      "name": "decreaseAllowance",
      "outputs": [
        {
          "name": "",
          "type": "bool"
        }
      ],
      "payable": false,
      "stateMutability": "nonpayable",
      "type": "function"
    },
    {
      "constant": false,
      "inputs": [
        {
          "name": "to",
          "type": "address"
        },
        {
          "name": "value",
          "type": "uint256"
        }
      ],
      "name": "transfer",
      "outputs": [
        {
          "name": "success",
          "type": "bool"
        }
      ],
      "payable": false,
      "stateMutability": "nonpayable",
      "type": "function"
    },
    {
      "constant": true,
      "inputs": [
        {
          "name": "account",
          "type": "address"
        }
      ],
      "name": "isMinter",
      "outputs": [
        {
          "name": "",
          "type": "bool"
        }
      ],
      "payable": false,
      "stateMutability": "view",
      "type": "function"
    },
    {
      "constant": false,
      "inputs": [
        {
          "name": "to",
          "type": "address"
        },
        {
          "name": "value",
          "type": "uint256"
        },
        {
          "name": "data",
          "type": "bytes"
        }
      ],
      "name": "transfer",
      "outputs": [
        {
          "name": "success",
          "type": "bool"
        }
      ],
      "payable": false,
      "stateMutability": "nonpayable",
      "type": "function"
    },
    {
      "constant": true,
      "inputs": [
        {
          "name": "owner",
          "type": "address"
        },
        {
          "name": "spender",
          "type": "address"
        }
      ],
      "name": "allowance",
      "outputs": [
        {
          "name": "",
          "type": "uint256"
        }
      ],
      "payable": false,
      "stateMutability": "view",
      "type": "function"
    },
    {
      "constant": false,
      "inputs": [
        {
          "name": "newOwner",
          "type": "address"
        }
      ],
      "name": "transferOwnership",
      "outputs": [],
      "payable": false,
      "stateMutability": "nonpayable",
      "type": "function"
    },
    {
      "constant": false,
      "inputs": [
        {
          "name": "_from",
          "type": "address"
        },
        {
          "name": "_value",
          "type": "uint256"
        }
      ],
      "name": "withdraw",
      "outputs": [],
      "payable": false,
      "stateMutability": "nonpayable",
      "type": "function"
    },
    {
      "constant": false,
      "inputs": [
        {
          "name": "to",
          "type": "address"
        },
        {
          "name": "value",
          "type": "uint256"
        },
        {
          "name": "data",
          "type": "bytes"
        },
        {
          "name": "custom_fallback",
          "type": "string"
        }
      ],
      "name": "transfer",
      "outputs": [
        {
          "name": "success",
          "type": "bool"
        }
      ],
      "payable": false,
      "stateMutability": "nonpayable",
      "type": "function"
    },
    {
      "anonymous": false,
      "inputs": [
        {
          "indexed": true,
          "name": "account",
          "type": "address"
        }
      ],
      "name": "MinterAdded",
      "type": "event"
    },
    {
      "anonymous": false,
      "inputs": [
        {
          "indexed": true,
          "name": "account",
          "type": "address"
        }
      ],
      "name": "MinterRemoved",
      "type": "event"
    },
    {
      "anonymous": false,
      "inputs": [
        {
          "indexed": true,
          "name": "from",
          "type": "address"
        },
        {
          "indexed": true,
          "name": "to",
          "type": "address"
        },
        {
          "indexed": false,
          "name": "value",
          "type": "uint256"
        },
        {
          "indexed": true,
          "name": "data",
          "type": "bytes"
        }
      ],
      "name": "TransferData",
      "type": "event"
    },
    {
      "anonymous": false,
      "inputs": [
        {
          "indexed": true,
          "name": "owner",
          "type": "address"
        },
        {
          "indexed": true,
          "name": "spender",
          "type": "address"
        },
        {
          "indexed": false,
          "name": "value",
          "type": "uint256"
        }
      ],
      "name": "Approval",
      "type": "event"
    },
    {
      "anonymous": false,
      "inputs": [
        {
          "indexed": true,
          "name": "from",
          "type": "address"
        },
        {
          "indexed": true,
          "name": "to",
          "type": "address"
        },
        {
          "indexed": false,
          "name": "value",
          "type": "uint256"
        }
      ],
      "name": "Transfer",
      "type": "event"
    },
    {
      "anonymous": false,
      "inputs": [
        {
          "indexed": true,
          "name": "previousOwner",
          "type": "address"
        },
        {
          "indexed": true,
          "name": "newOwner",
          "type": "address"
        }
      ],
      "name": "OwnershipTransferred",
      "type": "event"
    },
    {
      "constant": false,
      "inputs": [
        {
          "name": "to",
          "type": "address"
        },
        {
          "name": "value",
          "type": "uint256"
        }
      ],
      "name": "mint",
      "outputs": [
        {
          "name": "",
          "type": "bool"
        }
      ],
      "payable": false,
      "stateMutability": "nonpayable",
      "type": "function"
    }
  ],
  "bytecode": "0x6080604081905260008054600160a060020a0319163317808255600160a060020a0316917f8be0079c531659141344cd1fd0a4f28419497f9722a3daafe3b4186f6b6457e0908290a36200005c3364010000000062000062810204565b62000147565b6200007d60048264010000000062001647620000b482021704565b604051600160a060020a038216907f6ae172837ea30b801fbfcdd4108aa1d5bf8ff775444fd70256b44e6bf3dfc3f690600090a250565b600160a060020a0381161515620000ca57600080fd5b620000df82826401000000006200010f810204565b15620000ea57600080fd5b600160a060020a0316600090815260209190915260409020805460ff19166001179055565b6000600160a060020a03821615156200012757600080fd5b50600160a060020a03166000908152602091909152604090205460ff1690565b61172d80620001576000396000f3006080604052600436106100ed5763ffffffff60e060020a600035041663095ea7b381146100f257806318160ddd1461012a57806323b872dd14610151578063395093511461017b57806340c10f191461019f57806370a08231146101c3578063715018a6146101e45780638da5cb5b146101fb5780638f32d59b1461022c578063983b2d56146102415780639865027514610262578063a457c2d714610277578063a9059cbb1461029b578063aa271e1a146102bf578063be45fd62146102e0578063dd62ed3e14610349578063f2fde38b14610370578063f3fef3a314610391578063f6368f8a146103b5575b600080fd5b3480156100fe57600080fd5b50610116600160a060020a036004351660243561045c565b604080519115158252519081900360200190f35b34801561013657600080fd5b5061013f61054b565b60408051918252519081900360200190f35b34801561015d57600080fd5b50610116600160a060020a0360043581169060243516604435610551565b34801561018757600080fd5b50610116600160a060020a0360043516602435610642565b3480156101ab57600080fd5b50610116600160a060020a0360043516602435610763565b3480156101cf57600080fd5b5061013f600160a060020a036004351661078c565b3480156101f057600080fd5b506101f96107a7565b005b34801561020757600080fd5b50610210610811565b60408051600160a060020a039092168252519081900360200190f35b34801561023857600080fd5b50610116610820565b34801561024d57600080fd5b506101f9600160a060020a0360043516610831565b34801561026e57600080fd5b506101f9610851565b34801561028357600080fd5b50610116600160a060020a036004351660243561085c565b3480156102a757600080fd5b50610116600160a060020a0360043516602435610890565b3480156102cb57600080fd5b50610116600160a060020a03600435166108c8565b3480156102ec57600080fd5b50604080516020600460443581810135601f8101849004840285018401909552848452610116948235600160a060020a03169460248035953695946064949201919081908401838280828437509497506108e19650505050505050565b34801561035557600080fd5b5061013f600160a060020a0360043581169060243516610917565b34801561037c57600080fd5b506101f9600160a060020a0360043516610942565b34801561039d57600080fd5b506101f9600160a060020a036004351660243561095e565b3480156103c157600080fd5b50604080516020600460443581810135601f8101849004840285018401909552848452610116948235600160a060020a031694602480359536959460649492019190819084018382808284375050604080516020601f89358b018035918201839004830284018301909452808352979a999881019791965091820194509250829150840183828082843750949750610b459650505050505050565b6000600160a060020a03831615156104e4576040805160e560020a62461bcd02815260206004820152603460248201527f5b417070726f7665204572726f725d205370656e646572206163636f756e742060448201527f63616e6e6f742062652030782061646472657373000000000000000000000000606482015290519081900360840190fd5b336000818152600260209081526040808320600160a060020a03881680855290835292819020869055805186815290519293927f8c5be1e5ebec7d5bd14f71427d1e84f3dd0314c0f7b2291e5b200ac8c7c3b925929181900390910190a350600192915050565b60035490565b60006060600061056085610ea3565b156105d15761057186868685610eab565b600160a060020a03871660009081526002602090815260408083203384529091529020549091506105a8908563ffffffff6111f416565b600160a060020a0387166000908152600260209081526040808320338452909152902055610639565b6105dd8686868561120b565b600160a060020a0387166000908152600260209081526040808320338452909152902054909150610614908563ffffffff6111f416565b600160a060020a03871660009081526002602090815260408083203384529091529020555b95945050505050565b6000600160a060020a03831615156106ca576040805160e560020a62461bcd02815260206004820152603660248201527f5b416c6c6f77616e6365204572726f725d205370656e646572206163636f756e60448201527f742063616e6e6f74206265203078206164647265737300000000000000000000606482015290519081900360840190fd5b336000908152600260209081526040808320600160a060020a03871684529091529020546106fe908363ffffffff6113e616565b336000818152600260209081526040808320600160a060020a0389168085529083529281902085905580519485525191937f8c5be1e5ebec7d5bd14f71427d1e84f3dd0314c0f7b2291e5b200ac8c7c3b925929081900390910190a350600192915050565b600061076e336108c8565b151561077957600080fd5b61078383836113f8565b50600192915050565b600160a060020a031660009081526001602052604090205490565b6107af610820565b15156107ba57600080fd5b60008054604051600160a060020a03909116907f8be0079c531659141344cd1fd0a4f28419497f9722a3daafe3b4186f6b6457e0908390a36000805473ffffffffffffffffffffffffffffffffffffffff19169055565b600054600160a060020a031690565b600054600160a060020a0316331490565b61083a336108c8565b151561084557600080fd5b61084e81611503565b50565b61085a3361154b565b565b336000908152600260209081526040808320600160a060020a03861684529091528120546106fe908363ffffffff6111f416565b6000606061089d84610ea3565b156108b5576108ae33858584610eab565b91506108c1565b6108ae3385858461120b565b5092915050565b60006108db60048363ffffffff61159316565b92915050565b60006108ec84610ea3565b15610904576108fd33858585610eab565b9050610910565b6108fd3385858561120b565b9392505050565b600160a060020a03918216600090815260026020908152604080832093909416825291909152205490565b61094a610820565b151561095557600080fd5b61084e816115ca565b806109683361078c565b10156109e4576040805160e560020a62461bcd02815260206004820152603460248201527f42616c616e6365206d7573742062652067726561746572207468656e20616d6f60448201527f756e7420746f206265207472616e736665726564000000000000000000000000606482015290519081900360840190fd5b33600160a060020a0316634d840bcc6040518163ffffffff1660e060020a028152600401602060405180830381600087803b158015610a2257600080fd5b505af1158015610a36573d6000803e3d6000fd5b505050506040513d6020811015610a4c57600080fd5b50511515600114610aa7576040805160e560020a62461bcd02815260206004820152601d60248201527f636f6e7472616374206973206e6f742077697468726472617761626c65000000604482015290519081900360640190fd5b600160a060020a038216600090815260016020526040902054610ad0908263ffffffff6113e616565b600160a060020a038316600090815260016020526040808220929092553381522054610b02908263ffffffff6111f416565b336000818152600160209081526040918290209390935580518481529051600160a060020a038616936000805160206116e2833981519152928290030190a35050565b6000610b5085610ea3565b15610e8c5783610b5f3361078c565b1015610c01576040805160e560020a62461bcd02815260206004820152604560248201527f5b5472616e73666572204572726f725d2042616c616e6365206d75737420626560448201527f2067726561746572207468656e20616d6f756e7420746f206265207472616e7360648201527f6665726564000000000000000000000000000000000000000000000000000000608482015290519081900360a40190fd5b610c1a84610c0e3361078c565b9063ffffffff6111f416565b33600090815260016020526040902055610c4384610c378761078c565b9063ffffffff6113e616565b6001600087600160a060020a0316600160a060020a031681526020019081526020016000208190555084600160a060020a03166000836040516020018082805190602001908083835b60208310610cab5780518252601f199092019160209182019101610c8c565b6001836020036101000a0380198251168184511680821785525050505050509050019150506040516020818303038152906040526040518082805190602001908083835b60208310610d0e5780518252601f199092019160209182019101610cef565b6001836020036101000a038019825116818451168082178552505050505050905001915050604051809103902060e060020a9004903387876040518563ffffffff1660e060020a0281526004018084600160a060020a0316600160a060020a03168152602001838152602001828051906020019080838360005b83811015610da0578181015183820152602001610d88565b50505050905090810190601f168015610dcd5780820380516001836020036101000a031916815260200191505b50935050505060006040518083038185885af193505050501515610ded57fe5b826040518082805190602001908083835b60208310610e1d5780518252601f199092019160209182019101610dfe565b51815160209384036101000a6000190180199092169116179052604080519290940182900382208a83529351939550600160a060020a038b16945033937f9b6aa1faccbd47218eb2870ae6411b374a3cf25c4285a37ef90bcb3c1fdde9ac9350918290030190a4506001610e9b565b610e983386868661120b565b90505b949350505050565b6000903b1190565b600082610eb78661078c565b1015610f59576040805160e560020a62461bcd02815260206004820152604560248201527f5b5472616e73666572204572726f725d2042616c616e6365206d75737420626560448201527f2067726561746572207468656e20616d6f756e7420746f206265207472616e7360648201527f6665726564000000000000000000000000000000000000000000000000000000608482015290519081900360a40190fd5b600160a060020a0384161515610fdf576040805160e560020a62461bcd02815260206004820152602960248201527f5b5472616e73666572204572726f725d205f746f2063616e6e6f74206265203060448201527f7820616464726573730000000000000000000000000000000000000000000000606482015290519081900360840190fd5b610fec83610c0e8761078c565b600160a060020a03861660009081526001602052604090205561101283610c378661078c565b6001600086600160a060020a0316600160a060020a031681526020019081526020016000208190555083600160a060020a031663c0ee0b8a8685856040518463ffffffff1660e060020a0281526004018084600160a060020a0316600160a060020a0316815260200183815260200180602001828103825283818151815260200191508051906020019080838360005b838110156110ba5781810151838201526020016110a2565b50505050905090810190601f1680156110e75780820380516001836020036101000a031916815260200191505b50945050505050600060405180830381600087803b15801561110857600080fd5b505af115801561111c573d6000803e3d6000fd5b5050604080518681529051600160a060020a038089169450891692506000805160206116e28339815191529181900360200190a3816040518082805190602001908083835b602083106111805780518252601f199092019160209182019101611161565b51815160209384036101000a6000190180199092169116179052604080519290940182900382208983529351939550600160a060020a038a811695508b16937f9b6aa1faccbd47218eb2870ae6411b374a3cf25c4285a37ef90bcb3c1fdde9ac9350918290030190a4506001949350505050565b6000808383111561120457600080fd5b5050900390565b6000826112178661078c565b10156112b9576040805160e560020a62461bcd02815260206004820152604560248201527f5b5472616e73666572204572726f725d2042616c616e6365206d75737420626560448201527f2067726561746572207468656e20616d6f756e7420746f206265207472616e7360648201527f6665726564000000000000000000000000000000000000000000000000000000608482015290519081900360a40190fd5b600160a060020a038416151561133f576040805160e560020a62461bcd02815260206004820152602960248201527f5b5472616e73666572204572726f725d205f746f2063616e6e6f74206265203060448201527f7820616464726573730000000000000000000000000000000000000000000000606482015290519081900360840190fd5b61134c83610c0e8761078c565b600160a060020a03861660009081526001602052604090205561137283610c378661078c565b600160a060020a0380861660008181526001602090815260409182902094909455805187815290519193928916926000805160206116e283398151915292918290030190a381604051808280519060200190808383602083106111805780518252601f199092019160209182019101611161565b60008282018381101561091057600080fd5b600160a060020a038216151561147e576040805160e560020a62461bcd02815260206004820152603460248201527f5b4d696e74204572726f725d20526563697069656e74206f6620746f6b656e7360448201527f2063616e6e6f7420626520616464726573732030000000000000000000000000606482015290519081900360840190fd5b600354611491908263ffffffff6113e616565b600355600160a060020a0382166000908152600160205260409020546114bd908263ffffffff6113e616565b600160a060020a03831660008181526001602090815260408083209490945583518581529351929391926000805160206116e28339815191529281900390910190a35050565b61151460048263ffffffff61164716565b604051600160a060020a038216907f6ae172837ea30b801fbfcdd4108aa1d5bf8ff775444fd70256b44e6bf3dfc3f690600090a250565b61155c60048263ffffffff61169516565b604051600160a060020a038216907fe94479a9f7e1952cc78f2d6baab678adc1b772d936c6583def489e524cb6669290600090a250565b6000600160a060020a03821615156115aa57600080fd5b50600160a060020a03166000908152602091909152604090205460ff1690565b600160a060020a03811615156115df57600080fd5b60008054604051600160a060020a03808516939216917f8be0079c531659141344cd1fd0a4f28419497f9722a3daafe3b4186f6b6457e091a36000805473ffffffffffffffffffffffffffffffffffffffff1916600160a060020a0392909216919091179055565b600160a060020a038116151561165c57600080fd5b6116668282611593565b1561167057600080fd5b600160a060020a0316600090815260209190915260409020805460ff19166001179055565b600160a060020a03811615156116aa57600080fd5b6116b48282611593565b15156116bf57600080fd5b600160a060020a0316600090815260209190915260409020805460ff191690555600ddf252ad1be2c89b69c2b068fc378daa952ba7f163c4a11628f55a4df523b3efa165627a7a72305820522b79a35f58746eaa82e3c8352cdeefac61b20d057eea6d2e0f64ddefff36090029",
  "source": "pragma solidity ^0.4.24;\r\n\r\nimport \"./ERC223.sol\";\r\nimport \"./MinterRole.sol\";\r\n\r\n/**\r\n * @title Mintable Token\r\n * @dev ERC223 minting logic\r\n */\r\ncontract ERC223Mintable is ERC223, MinterRole{\r\n  /**\r\n   * @dev Function to mint tokens\r\n   * @param to The address that will receive the minted tokens.\r\n   * @param value The amount of tokens to mint.\r\n   * @return A boolean that indicates if the operation was successful.\r\n   */\r\n  function mint(address to, uint256 value) public onlyMinter returns (bool){\r\n    _mint(to, value);\r\n    return true;\r\n  }\r\n}",
  "sourcePath": "/home/ubuntu/Lendflo-LDF-ERC223/contracts/ERC223Mintable.sol",
  "compiler": {
    "name": "solc",
    "version": "0.4.24+commit.e67f0147.Linux.g++"
  },
  "schemaVersion": "3.0.1",
  "updatedAt": "2019-05-20T08:10:12.215Z",
  "devdoc": {
    "methods": {
      "allowance(address,address)": {
        "details": "Function to check the amount of tokens that an owner allowed to a spender.\r",
        "params": {
          "owner": "address The address which owns the funds.\r",
          "spender": "address The address which will spend the funds.\r"
        },
        "return": "A uint256 specifying the amount of tokens still available for the spender.\r"
      },
      "approve(address,uint256)": {
        "details": "Approve the passed address to spend the specified amount of tokens on behalf of msg.sender.\r Beware that changing an allowance with this method brings the risk that someone may use both the old\r and the new allowance by unfortunate transaction ordering. One possible solution to mitigate this\r race condition is to first reduce the spender's allowance to 0 and set the desired value afterwards:\r https://github.com/ethereum/EIPs/issues/20#issuecomment-263524729\r",
        "params": {
          "spender": "The address which will spend the funds.\r",
          "value": "The amount of tokens to be spent.\r"
        }
      },
      "balanceOf(address)": {
        "details": "Function to return a balance of the address.\r",
        "return": "A uint256 specifying the amount of tokens by the spender.\r"
      },
      "decreaseAllowance(address,uint256)": {
        "details": "Decrease the amount of tokens that an owner allowed to a spender.\r approve should be called when allowed_[spender] == 0. To decrement\r allowed value is better to use this function to avoid 2 calls (and wait until\r the first transaction is mined)\r From MonolithDAO Token.sol\r",
        "params": {
          "spender": "The address which will spend the funds.\r",
          "subtractedValue": "The amount of tokens to decrease the allowance by.\r"
        }
      },
      "increaseAllowance(address,uint256)": {
        "details": "Increase the amount of tokens that an owner allowed to a spender.\r approve should be called when allowed_[_spender] == 0. To increment\r allowed value is better to use this function to avoid 2 calls (and wait until\r the first transaction is mined)\r From MonolithDAO Token.sol\r",
        "params": {
          "addedValue": "The amount of tokens to increase the allowance by.\r",
          "spender": "The address which will spend the funds.\r"
        }
      },
      "isOwner()": {
        "return": "true if `msg.sender` is the owner of the contract."
      },
      "mint(address,uint256)": {
        "details": "Function to mint tokens\r",
        "params": {
          "to": "The address that will receive the minted tokens.\r",
          "value": "The amount of tokens to mint.\r"
        },
        "return": "A boolean that indicates if the operation was successful.\r"
      },
      "owner()": {
        "return": "the address of the owner."
      },
      "renounceOwnership()": {
        "details": "Allows the current owner to relinquish control of the contract."
      },
      "totalSupply()": {
        "details": "Function to access total supply of tokens \r",
        "return": "A uint256 specifying the total amount of coins in circulation.\r"
      },
      "transfer(address,uint256)": {
        "details": "Public function that allows to transfer tokens.\r Function implements recognition if the recepeient is a contract or not and executes different subfunctions.\r",
        "params": {
          "to": "Address of the recepient of the tokens.\r",
          "value": "The amount of the tokens to be transfered.\r"
        },
        "return": "A bool defining if the transfer was succesful.\r"
      },
      "transfer(address,uint256,bytes)": {
        "details": "Public function that allows to transfer tokens with additional data. \r Function implements recognition if the recepeient is a contract or not and executes different subfunctions.\r",
        "params": {
          "data": "Additional data to be send to the recepient.\r",
          "to": "Address of the recepient of the tokens.\r",
          "value": "The amount of the tokens to be transfered.\r"
        },
        "return": "A bool defining if the transfer was succesful.\r"
      },
      "transfer(address,uint256,bytes,string)": {
        "details": "Public function that allows to transfer tokens with additional data \r and customized fallback.\r",
        "params": {
          "custom_fallback": "Customized fallback that is executed after the transfer of the tokens.\r",
          "data": "Additional data to be send to the recepient.\r",
          "to": "Address of the recepient of the tokens.\r",
          "value": "The amount of the tokens to be transfered.\r"
        },
        "return": "A bool defining if the transfer was succesful.\r"
      },
      "transferFrom(address,address,uint256)": {
        "details": "Transfer tokens from one address to another\r",
        "params": {
          "from": "address The address which you want to send tokens from\r",
          "to": "address The address which you want to transfer to\r",
          "value": "uint256 the amount of tokens to be transferred\r"
        }
      },
      "transferOwnership(address)": {
        "details": "Allows the current owner to transfer control of the contract to a newOwner.",
        "params": {
          "newOwner": "The address to transfer ownership to."
        }
      },
      "withdraw(address,uint256)": {
        "details": "withdraw tokens from the contract. Function can only be called by a contract which holds the money.\r",
        "params": {
          "_from": "address that executed the contract\r",
          "_value": "amount of tokens to withdraw\r"
        }
      }
    },
    "title": "Mintable Token\r"
  },
  "userdoc": {
    "methods": {
      "renounceOwnership()": {
        "notice": "Renouncing to ownership will leave the contract without an owner. It will not be possible to call the functions with the `onlyOwner` modifier anymore."
      }
    }
  }
}