{
  "contractName": "ERC223",
  "abi": [
    {
      "constant": false,
      "inputs": [],
      "name": "renounceOwnership",
      "outputs": [],
      "payable": false,
      "stateMutability": "nonpayable",
      "type": "function"
    },
    {
      "constant": true,
      "inputs": [],
      "name": "owner",
      "outputs": [
        {
          "name": "",
          "type": "address"
        }
      ],
      "payable": false,
      "stateMutability": "view",
      "type": "function"
    },
    {
      "constant": true,
      "inputs": [],
      "name": "isOwner",
      "outputs": [
        {
          "name": "",
          "type": "bool"
        }
      ],
      "payable": false,
      "stateMutability": "view",
      "type": "function"
    },
    {
      "constant": false,
      "inputs": [
        {
          "name": "newOwner",
          "type": "address"
        }
      ],
      "name": "transferOwnership",
      "outputs": [],
      "payable": false,
      "stateMutability": "nonpayable",
      "type": "function"
    },
    {
      "anonymous": false,
      "inputs": [
        {
          "indexed": true,
          "name": "from",
          "type": "address"
        },
        {
          "indexed": true,
          "name": "to",
          "type": "address"
        },
        {
          "indexed": false,
          "name": "value",
          "type": "uint256"
        },
        {
          "indexed": true,
          "name": "data",
          "type": "bytes"
        }
      ],
      "name": "TransferData",
      "type": "event"
    },
    {
      "anonymous": false,
      "inputs": [
        {
          "indexed": true,
          "name": "owner",
          "type": "address"
        },
        {
          "indexed": true,
          "name": "spender",
          "type": "address"
        },
        {
          "indexed": false,
          "name": "value",
          "type": "uint256"
        }
      ],
      "name": "Approval",
      "type": "event"
    },
    {
      "anonymous": false,
      "inputs": [
        {
          "indexed": true,
          "name": "from",
          "type": "address"
        },
        {
          "indexed": true,
          "name": "to",
          "type": "address"
        },
        {
          "indexed": false,
          "name": "value",
          "type": "uint256"
        }
      ],
      "name": "Transfer",
      "type": "event"
    },
    {
      "anonymous": false,
      "inputs": [
        {
          "indexed": true,
          "name": "previousOwner",
          "type": "address"
        },
        {
          "indexed": true,
          "name": "newOwner",
          "type": "address"
        }
      ],
      "name": "OwnershipTransferred",
      "type": "event"
    },
    {
      "constant": true,
      "inputs": [],
      "name": "totalSupply",
      "outputs": [
        {
          "name": "",
          "type": "uint256"
        }
      ],
      "payable": false,
      "stateMutability": "view",
      "type": "function"
    },
    {
      "constant": true,
      "inputs": [
        {
          "name": "owner",
          "type": "address"
        }
      ],
      "name": "balanceOf",
      "outputs": [
        {
          "name": "",
          "type": "uint256"
        }
      ],
      "payable": false,
      "stateMutability": "view",
      "type": "function"
    },
    {
      "constant": true,
      "inputs": [
        {
          "name": "owner",
          "type": "address"
        },
        {
          "name": "spender",
          "type": "address"
        }
      ],
      "name": "allowance",
      "outputs": [
        {
          "name": "",
          "type": "uint256"
        }
      ],
      "payable": false,
      "stateMutability": "view",
      "type": "function"
    },
    {
      "constant": false,
      "inputs": [
        {
          "name": "from",
          "type": "address"
        },
        {
          "name": "to",
          "type": "address"
        },
        {
          "name": "value",
          "type": "uint256"
        }
      ],
      "name": "transferFrom",
      "outputs": [
        {
          "name": "",
          "type": "bool"
        }
      ],
      "payable": false,
      "stateMutability": "nonpayable",
      "type": "function"
    },
    {
      "constant": false,
      "inputs": [
        {
          "name": "spender",
          "type": "address"
        },
        {
          "name": "value",
          "type": "uint256"
        }
      ],
      "name": "approve",
      "outputs": [
        {
          "name": "",
          "type": "bool"
        }
      ],
      "payable": false,
      "stateMutability": "nonpayable",
      "type": "function"
    },
    {
      "constant": false,
      "inputs": [
        {
          "name": "spender",
          "type": "address"
        },
        {
          "name": "addedValue",
          "type": "uint256"
        }
      ],
      "name": "increaseAllowance",
      "outputs": [
        {
          "name": "",
          "type": "bool"
        }
      ],
      "payable": false,
      "stateMutability": "nonpayable",
      "type": "function"
    },
    {
      "constant": false,
      "inputs": [
        {
          "name": "spender",
          "type": "address"
        },
        {
          "name": "subtractedValue",
          "type": "uint256"
        }
      ],
      "name": "decreaseAllowance",
      "outputs": [
        {
          "name": "",
          "type": "bool"
        }
      ],
      "payable": false,
      "stateMutability": "nonpayable",
      "type": "function"
    },
    {
      "constant": false,
      "inputs": [
        {
          "name": "to",
          "type": "address"
        },
        {
          "name": "value",
          "type": "uint256"
        },
        {
          "name": "data",
          "type": "bytes"
        }
      ],
      "name": "transfer",
      "outputs": [
        {
          "name": "success",
          "type": "bool"
        }
      ],
      "payable": false,
      "stateMutability": "nonpayable",
      "type": "function"
    },
    {
      "constant": false,
      "inputs": [
        {
          "name": "to",
          "type": "address"
        },
        {
          "name": "value",
          "type": "uint256"
        }
      ],
      "name": "transfer",
      "outputs": [
        {
          "name": "success",
          "type": "bool"
        }
      ],
      "payable": false,
      "stateMutability": "nonpayable",
      "type": "function"
    },
    {
      "constant": false,
      "inputs": [
        {
          "name": "to",
          "type": "address"
        },
        {
          "name": "value",
          "type": "uint256"
        },
        {
          "name": "data",
          "type": "bytes"
        },
        {
          "name": "custom_fallback",
          "type": "string"
        }
      ],
      "name": "transfer",
      "outputs": [
        {
          "name": "success",
          "type": "bool"
        }
      ],
      "payable": false,
      "stateMutability": "nonpayable",
      "type": "function"
    },
    {
      "constant": false,
      "inputs": [
        {
          "name": "_from",
          "type": "address"
        },
        {
          "name": "_value",
          "type": "uint256"
        }
      ],
      "name": "withdraw",
      "outputs": [],
      "payable": false,
      "stateMutability": "nonpayable",
      "type": "function"
    }
  ],
  "bytecode": "0x6080604081905260008054600160a060020a0319163317808255600160a060020a0316917f8be0079c531659141344cd1fd0a4f28419497f9722a3daafe3b4186f6b6457e0908290a36113c3806100576000396000f3006080604052600436106100c15763ffffffff60e060020a600035041663095ea7b381146100c657806318160ddd146100fe57806323b872dd14610125578063395093511461014f57806370a0823114610173578063715018a6146101945780638da5cb5b146101ab5780638f32d59b146101dc578063a457c2d7146101f1578063a9059cbb14610215578063be45fd6214610239578063dd62ed3e146102a2578063f2fde38b146102c9578063f3fef3a3146102ea578063f6368f8a1461030e575b600080fd5b3480156100d257600080fd5b506100ea600160a060020a03600435166024356103b5565b604080519115158252519081900360200190f35b34801561010a57600080fd5b506101136104a4565b60408051918252519081900360200190f35b34801561013157600080fd5b506100ea600160a060020a03600435811690602435166044356104aa565b34801561015b57600080fd5b506100ea600160a060020a036004351660243561059b565b34801561017f57600080fd5b50610113600160a060020a03600435166106bc565b3480156101a057600080fd5b506101a96106d7565b005b3480156101b757600080fd5b506101c0610741565b60408051600160a060020a039092168252519081900360200190f35b3480156101e857600080fd5b506100ea610750565b3480156101fd57600080fd5b506100ea600160a060020a0360043516602435610761565b34801561022157600080fd5b506100ea600160a060020a0360043516602435610795565b34801561024557600080fd5b50604080516020600460443581810135601f81018490048402850184019095528484526100ea948235600160a060020a03169460248035953695946064949201919081908401838280828437509497506107cd9650505050505050565b3480156102ae57600080fd5b50610113600160a060020a0360043581169060243516610803565b3480156102d557600080fd5b506101a9600160a060020a036004351661082e565b3480156102f657600080fd5b506101a9600160a060020a036004351660243561084d565b34801561031a57600080fd5b50604080516020600460443581810135601f81018490048402850184019095528484526100ea948235600160a060020a031694602480359536959460649492019190819084018382808284375050604080516020601f89358b018035918201839004830284018301909452808352979a999881019791965091820194509250829150840183828082843750949750610a469650505050505050565b6000600160a060020a038316151561043d576040805160e560020a62461bcd02815260206004820152603460248201527f5b417070726f7665204572726f725d205370656e646572206163636f756e742060448201527f63616e6e6f742062652030782061646472657373000000000000000000000000606482015290519081900360840190fd5b336000818152600260209081526040808320600160a060020a03881680855290835292819020869055805186815290519293927f8c5be1e5ebec7d5bd14f71427d1e84f3dd0314c0f7b2291e5b200ac8c7c3b925929181900390910190a350600192915050565b60035490565b6000606060006104b985610da3565b1561052a576104ca86868685610dab565b600160a060020a0387166000908152600260209081526040808320338452909152902054909150610501908563ffffffff61110516565b600160a060020a0387166000908152600260209081526040808320338452909152902055610592565b6105368686868561111c565b600160a060020a038716600090815260026020908152604080832033845290915290205490915061056d908563ffffffff61110516565b600160a060020a03871660009081526002602090815260408083203384529091529020555b95945050505050565b6000600160a060020a0383161515610623576040805160e560020a62461bcd02815260206004820152603660248201527f5b416c6c6f77616e6365204572726f725d205370656e646572206163636f756e60448201527f742063616e6e6f74206265203078206164647265737300000000000000000000606482015290519081900360840190fd5b336000908152600260209081526040808320600160a060020a0387168452909152902054610657908363ffffffff61130816565b336000818152600260209081526040808320600160a060020a0389168085529083529281902085905580519485525191937f8c5be1e5ebec7d5bd14f71427d1e84f3dd0314c0f7b2291e5b200ac8c7c3b925929081900390910190a350600192915050565b600160a060020a031660009081526001602052604090205490565b6106df610750565b15156106ea57600080fd5b60008054604051600160a060020a03909116907f8be0079c531659141344cd1fd0a4f28419497f9722a3daafe3b4186f6b6457e0908390a36000805473ffffffffffffffffffffffffffffffffffffffff19169055565b600054600160a060020a031690565b600054600160a060020a0316331490565b336000908152600260209081526040808320600160a060020a0386168452909152812054610657908363ffffffff61110516565b600060606107a284610da3565b156107ba576107b333858584610dab565b91506107c6565b6107b33385858461111c565b5092915050565b60006107d884610da3565b156107f0576107e933858585610dab565b90506107fc565b6107e93385858561111c565b9392505050565b600160a060020a03918216600090815260026020908152604080832093909416825291909152205490565b610836610750565b151561084157600080fd5b61084a8161131a565b50565b80610857336106bc565b10156108d3576040805160e560020a62461bcd02815260206004820152603460248201527f42616c616e6365206d7573742062652067726561746572207468656e20616d6f60448201527f756e7420746f206265207472616e736665726564000000000000000000000000606482015290519081900360840190fd5b33600160a060020a0316634d840bcc6040518163ffffffff1660e060020a028152600401602060405180830381600087803b15801561091157600080fd5b505af1158015610925573d6000803e3d6000fd5b505050506040513d602081101561093b57600080fd5b50511515600114610996576040805160e560020a62461bcd02815260206004820152601d60248201527f636f6e7472616374206973206e6f742077697468726472617761626c65000000604482015290519081900360640190fd5b600160a060020a0382166000908152600160205260409020546109bf908263ffffffff61130816565b600160a060020a0383166000908152600160205260408082209290925533815220546109f1908263ffffffff61110516565b336000818152600160209081526040918290209390935580518481529051600160a060020a038616937fddf252ad1be2c89b69c2b068fc378daa952ba7f163c4a11628f55a4df523b3ef928290030190a35050565b6000610a5185610da3565b15610d8c5783610a60336106bc565b11610b01576040805160e560020a62461bcd02815260206004820152604560248201527f5b5472616e73666572204572726f725d2042616c616e6365206d75737420626560448201527f2067726561746572207468656e20616d6f756e7420746f206265207472616e7360648201527f6665726564000000000000000000000000000000000000000000000000000000608482015290519081900360a40190fd5b610b1a84610b0e336106bc565b9063ffffffff61110516565b33600090815260016020526040902055610b4384610b37876106bc565b9063ffffffff61130816565b6001600087600160a060020a0316600160a060020a031681526020019081526020016000208190555084600160a060020a03166000836040516020018082805190602001908083835b60208310610bab5780518252601f199092019160209182019101610b8c565b6001836020036101000a0380198251168184511680821785525050505050509050019150506040516020818303038152906040526040518082805190602001908083835b60208310610c0e5780518252601f199092019160209182019101610bef565b6001836020036101000a038019825116818451168082178552505050505050905001915050604051809103902060e060020a9004903387876040518563ffffffff1660e060020a0281526004018084600160a060020a0316600160a060020a03168152602001838152602001828051906020019080838360005b83811015610ca0578181015183820152602001610c88565b50505050905090810190601f168015610ccd5780820380516001836020036101000a031916815260200191505b50935050505060006040518083038185885af193505050501515610ced57fe5b826040518082805190602001908083835b60208310610d1d5780518252601f199092019160209182019101610cfe565b51815160209384036101000a6000190180199092169116179052604080519290940182900382208a83529351939550600160a060020a038b16945033937f9b6aa1faccbd47218eb2870ae6411b374a3cf25c4285a37ef90bcb3c1fdde9ac9350918290030190a4506001610d9b565b610d983386868661111c565b90505b949350505050565b6000903b1190565b600082610db7866106bc565b11610e58576040805160e560020a62461bcd02815260206004820152604560248201527f5b5472616e73666572204572726f725d2042616c616e6365206d75737420626560448201527f2067726561746572207468656e20616d6f756e7420746f206265207472616e7360648201527f6665726564000000000000000000000000000000000000000000000000000000608482015290519081900360a40190fd5b600160a060020a0384161515610ede576040805160e560020a62461bcd02815260206004820152602960248201527f5b5472616e73666572204572726f725d205f746f2063616e6e6f74206265203060448201527f7820616464726573730000000000000000000000000000000000000000000000606482015290519081900360840190fd5b610eeb83610b0e876106bc565b600160a060020a038616600090815260016020526040902055610f1183610b37866106bc565b6001600086600160a060020a0316600160a060020a031681526020019081526020016000208190555083600160a060020a031663c0ee0b8a8685856040518463ffffffff1660e060020a0281526004018084600160a060020a0316600160a060020a0316815260200183815260200180602001828103825283818151815260200191508051906020019080838360005b83811015610fb9578181015183820152602001610fa1565b50505050905090810190601f168015610fe65780820380516001836020036101000a031916815260200191505b50945050505050600060405180830381600087803b15801561100757600080fd5b505af115801561101b573d6000803e3d6000fd5b5050604080518681529051600160a060020a038089169450891692507fddf252ad1be2c89b69c2b068fc378daa952ba7f163c4a11628f55a4df523b3ef9181900360200190a3816040518082805190602001908083835b602083106110915780518252601f199092019160209182019101611072565b51815160209384036101000a6000190180199092169116179052604080519290940182900382208983529351939550600160a060020a038a811695508b16937f9b6aa1faccbd47218eb2870ae6411b374a3cf25c4285a37ef90bcb3c1fdde9ac9350918290030190a4506001949350505050565b6000808383111561111557600080fd5b5050900390565b600082611128866106bc565b116111c9576040805160e560020a62461bcd02815260206004820152604560248201527f5b5472616e73666572204572726f725d2042616c616e6365206d75737420626560448201527f2067726561746572207468656e20616d6f756e7420746f206265207472616e7360648201527f6665726564000000000000000000000000000000000000000000000000000000608482015290519081900360a40190fd5b600160a060020a038416151561124f576040805160e560020a62461bcd02815260206004820152602960248201527f5b5472616e73666572204572726f725d205f746f2063616e6e6f74206265203060448201527f7820616464726573730000000000000000000000000000000000000000000000606482015290519081900360840190fd5b61125c83610b0e876106bc565b600160a060020a03861660009081526001602052604090205561128283610b37866106bc565b600160a060020a0380861660008181526001602090815260409182902094909455805187815290519193928916927fddf252ad1be2c89b69c2b068fc378daa952ba7f163c4a11628f55a4df523b3ef92918290030190a381604051808280519060200190808383602083106110915780518252601f199092019160209182019101611072565b6000828201838110156107fc57600080fd5b600160a060020a038116151561132f57600080fd5b60008054604051600160a060020a03808516939216917f8be0079c531659141344cd1fd0a4f28419497f9722a3daafe3b4186f6b6457e091a36000805473ffffffffffffffffffffffffffffffffffffffff1916600160a060020a03929092169190911790555600a165627a7a723058203aa7f34a88440b8d7bb4aec6f1673541390d2ff5f7ccfaefc401d30c6a12b0d90029",
  "source": "\npragma solidity ^0.4.24;\n\nimport \"./IReceiver.sol\";\nimport \"./IERC223.sol\";\nimport \"./SafeMath.sol\";\nimport \"./IHolder.sol\";\nimport \"./Ownable.sol\";\n\n/**\n * @title ERC223 Token\n *\n * @dev Lendflo implementation of ERC223 Token originally suggested by: \n * https://github.com/Dexaran/ERC223-token-standard\n * and strongly based on standard ERC20 Token:\n * https://github.com/OpenZeppelin/openzeppelin-solidity/blob/master/contracts/token/ERC20/ERC20.sol\n * Lendflo ERC223 implements light fallback function that is not pure\n * and therefore allows to execute other functions in the contract after the transfer of funds.\n */\ncontract ERC223 is Ownable{ //is IERC223 {\n    using SafeMath for uint256;\n    mapping (address => uint256) private _balances;\n\n    mapping (address => mapping (address => uint256)) private _allowed;\n    \n    uint256 private _totalSupply;\n\n    event TransferData(address indexed from, address indexed to, uint value, bytes indexed data);\n    \n    event Approval(\n        address indexed owner,\n        address indexed spender,\n        uint256 value\n    );\n    \n    event Transfer(\n        address indexed from,\n        address indexed to,\n        uint256 value\n    );\n    \n    /**\n    * @dev Function to access total supply of tokens \n    * @return A uint256 specifying the total amount of coins in circulation.\n    */\n    function totalSupply() public view returns (uint256) {\n        return _totalSupply;\n    }\n    \n    /**\n    * @dev Function to return a balance of the address.\n    * @return A uint256 specifying the amount of tokens by the spender.\n    */\n    function balanceOf(address owner) public view returns (uint256) {\n        return _balances[owner];\n    }\n  \n    /**\n    * @dev Function to check the amount of tokens that an owner allowed to a spender.\n    * @param owner address The address which owns the funds.\n    * @param spender address The address which will spend the funds.\n    * @return A uint256 specifying the amount of tokens still available for the spender.\n    */\n    function allowance(address owner, address spender) public view returns (uint256) {\n        return _allowed[owner][spender];\n    }\n\n    /**\n    * @dev Transfer tokens from one address to another\n    * @param from address The address which you want to send tokens from\n    * @param to address The address which you want to transfer to\n    * @param value uint256 the amount of tokens to be transferred\n    */\n    function transferFrom(address from, address to, uint256 value) public returns (bool){\n        bytes memory empty;\n        bool answer;\n        if(_isContract(to)) {\n            answer = _transferToContract(from, to, value, empty);\n            _allowed[from][msg.sender] = _allowed[from][msg.sender].sub(value);\n        }\n        else {\n            answer = _transferToAddress(from, to, value, empty);\n            _allowed[from][msg.sender] = _allowed[from][msg.sender].sub(value);\n        }\n        return answer;\n    }\n\n    /**\n    * @dev Approve the passed address to spend the specified amount of tokens on behalf of msg.sender.\n    * Beware that changing an allowance with this method brings the risk that someone may use both the old\n    * and the new allowance by unfortunate transaction ordering. One possible solution to mitigate this\n    * race condition is to first reduce the spender's allowance to 0 and set the desired value afterwards:\n    * https://github.com/ethereum/EIPs/issues/20#issuecomment-263524729\n    * @param spender The address which will spend the funds.\n    * @param value The amount of tokens to be spent.\n    */\n    function approve(address spender, uint256 value) public returns (bool) {\n        require (spender != address(0), \"[Approve Error] Spender account cannot be 0x address\");\n\n        _allowed[msg.sender][spender] = value;\n        emit Approval(msg.sender, spender, value);\n        return true;\n    }\n\n    /**\n    * @dev Increase the amount of tokens that an owner allowed to a spender.\n    * approve should be called when allowed_[_spender] == 0. To increment\n    * allowed value is better to use this function to avoid 2 calls (and wait until\n    * the first transaction is mined)\n    * From MonolithDAO Token.sol\n    * @param spender The address which will spend the funds.\n    * @param addedValue The amount of tokens to increase the allowance by.\n    */\n    function increaseAllowance(address spender, uint256 addedValue) public returns (bool){\n        require (spender != address(0), \"[Allowance Error] Spender account cannot be 0x address\");\n\n        _allowed[msg.sender][spender] = (_allowed[msg.sender][spender].add(addedValue));\n\n        emit Approval(msg.sender, spender, _allowed[msg.sender][spender]);\n        return true;\n    }\n\n    /**\n    * @dev Decrease the amount of tokens that an owner allowed to a spender.\n    * approve should be called when allowed_[spender] == 0. To decrement\n    * allowed value is better to use this function to avoid 2 calls (and wait until\n    * the first transaction is mined)\n    * From MonolithDAO Token.sol\n    * @param spender The address which will spend the funds.\n    * @param subtractedValue The amount of tokens to decrease the allowance by.\n    */\n    function decreaseAllowance(address spender, uint256 subtractedValue) public returns (bool){\n        _allowed[msg.sender][spender] = (\n        _allowed[msg.sender][spender].sub(subtractedValue));\n\n        emit Approval(msg.sender, spender, _allowed[msg.sender][spender]);\n        return true;\n    }\n\n    /**\n    * @dev Public function that allows to transfer tokens with additional data \n    * and customized fallback.\n    * @param to Address of the recepient of the tokens.\n    * @param value The amount of the tokens to be transfered.\n    * @param data Additional data to be send to the recepient.\n    * @param custom_fallback Customized fallback that is executed after the transfer of the tokens.\n    * @return A bool defining if the transfer was succesful.\n    */\n    function transfer(address to, uint value, bytes data, string custom_fallback) public returns (bool success) {\n        if(_isContract(to)) {\n            require (balanceOf(msg.sender) > value, \"[Transfer Error] Balance must be greater then amount to be transfered\");\n            _balances[msg.sender] = balanceOf(msg.sender).sub(value);\n            _balances[to] = balanceOf(to).add(value);\n            assert(to.call.value(0)(bytes4(keccak256(abi.encodePacked(custom_fallback))), msg.sender, value, data));\n            emit TransferData(msg.sender, to, value, data);\n            return true;\n        }\n        else {\n            return _transferToAddress(msg.sender, to, value, data);\n        }\n    }\n\n    /**\n    * @dev Public function that allows to transfer tokens with additional data. \n    * Function implements recognition if the recepeient is a contract or not and executes different subfunctions.\n    * @param to Address of the recepient of the tokens.\n    * @param value The amount of the tokens to be transfered.\n    * @param data Additional data to be send to the recepient.\n    * @return A bool defining if the transfer was succesful.\n    */\n    function transfer(address to, uint value, bytes data) public returns (bool success) {\n        if(_isContract(to)) {\n            return _transferToContract(msg.sender, to, value, data);\n        }\n        else {\n            return _transferToAddress(msg.sender, to, value, data);\n        }\n    }\n  \n    /**\n    * @dev Public function that allows to transfer tokens.\n    * Function implements recognition if the recepeient is a contract or not and executes different subfunctions.\n    * @param to Address of the recepient of the tokens.\n    * @param value The amount of the tokens to be transfered.\n    * @return A bool defining if the transfer was succesful.\n    */\n    function transfer(address to, uint value) public returns (bool success) {\n        bytes memory empty;\n        if(_isContract(to)) {\n            return _transferToContract(msg.sender, to, value, empty);\n        }\n        else {\n            return _transferToAddress(msg.sender, to, value, empty);\n        }\n    }\n\n    /**\n    * @dev Internal function that mints an amount of the token and assigns it to\n    * an account. This encapsulates the modification of balances such that the\n    * proper events are emitted.\n    * @param account The account that will receive the created tokens.\n    * @param value The amount that will be created.\n    */\n    function _mint(address account, uint256 value) internal {\n        require (account != address(0), \"[Mint Error] Recipient of tokens cannot be address 0\");\n\n        _totalSupply = _totalSupply.add(value);\n        _balances[account] = _balances[account].add(value);\n        emit Transfer(address(0), account, value);\n    }\n\n    /**\n    * @dev Internal function that burns an amount of the token of a given\n    * account.\n    * @param account The account whose tokens will be burnt.\n    * @param value The amount that will be burnt.\n    */\n    function _burn(address account, uint256 value) internal {\n        _totalSupply = _totalSupply.sub(value);\n        _balances[account] = _balances[account].sub(value);\n        emit Transfer(account, address(0), value);\n    }\n\n    /**\n    * @dev Internal function that burns an amount of the token of a given\n    * account, deducting from the sender's allowance for said account. Uses the\n    * internal burn function.\n    * @param account The account whose tokens will be burnt.\n    * @param value The amount that will be burnt.\n    */\n    function _burnFrom(address account, uint256 value) internal onlyOwner{\n        // Should https://github.com/OpenZeppelin/zeppelin-solidity/issues/707 be accepted,\n        // this function needs to emit an event with the updated approval.\n        _burn(account, value);\n        emit Approval(account, msg.sender, _allowed[account][msg.sender]);\n    }\n\n    /**\n    * @dev Private function that recognizes if an address is a contract.\n    * The function checks it based on external code size.\n    * @param _addr Address to be checked.\n    * @return A bool defining if the address is a contract.\n    */\n    function _isContract(address _addr) private view returns (bool is_contract) {\n        uint length;\n        assembly {\n                length := extcodesize(_addr)\n        }\n        return (length>0);\n    }\n\n    /**\n    * @dev Private function that transfers changes the balance of the private address \n    * according to the transfer parameters.\n    * @param _to Address of the recepient of the tokens.\n    * @param _value The amount of the tokens to be transfered.\n    * @param _data Additional data to be emited.\n    * @return A bool defining if the transfer was succesful.\n    */\n    function _transferToAddress(address _from, address _to, uint _value, bytes _data) private returns (bool success) {\n        require (balanceOf(_from) > _value, \"[Transfer Error] Balance must be greater then amount to be transfered\");\n        require (_to != address(0), \"[Transfer Error] _to cannot be 0x address\");\n\n        _balances[_from] = balanceOf(_from).sub(_value);\n        _balances[_to] = balanceOf(_to).add(_value);\n\n        emit Transfer(_from, _to, _value);\n        emit TransferData(_from, _to, _value, _data);\n        return true;\n    }\n  \n    /**\n    * @dev Private function that transfers changes the balance of the contract address \n    * according to the transfer parameters. Additionally it executes fallback in the contract.\n    * @param _to Address of the recepient of the tokens.\n    * @param _value The amount of the tokens to be transfered.\n    * @param _data Additional data to be send to the recepient and emited.\n    * @return A bool defining if the transfer was succesful.\n    */\n    function _transferToContract(address _from, address _to, uint _value, bytes _data) private returns (bool success) {\n        require (balanceOf(_from) > _value, \"[Transfer Error] Balance must be greater then amount to be transfered\");\n        require (_to != address(0), \"[Transfer Error] _to cannot be 0x address\");\n\n        _balances[_from] = balanceOf(_from).sub(_value);\n        _balances[_to] = balanceOf(_to).add(_value);\n        IReceiver(_to).tokenFallback(_from, _value, _data);\n        \n        emit Transfer(_from, _to, _value);\n        emit TransferData(_from, _to, _value, _data);\n        return true;\n    }\n    \n    /**\n        @dev withdraw tokens from the contract. Function can only be called by a contract which holds the money.\n        @param _from  address that executed the contract\n        @param _value amount of tokens to withdraw\n    */\n    function withdraw(address _from, uint256 _value)\n        public\n    {\n        require (balanceOf(msg.sender) >= _value, \"Balance must be greater then amount to be transfered\");\n        require(IHolder(msg.sender).isWithdrawable() == true, \"contract is not withrdrawable\");\n         _balances[_from] = _balances[_from].add(_value); \n         _balances[msg.sender] = _balances[msg.sender].sub(_value);\n        emit Transfer(msg.sender, _from, _value);\n    }\n    \n    \n}",
  "sourcePath": "/home/ubuntu/Lendflo-LDF-ERC223/contracts/ERC223.sol",
  "compiler": {
    "name": "solc",
    "version": "0.4.24+commit.e67f0147.Linux.g++"
  },
  "schemaVersion": "3.0.1",
  "updatedAt": "2019-02-12T17:53:42.194Z",
  "devdoc": {
    "methods": {
      "allowance(address,address)": {
        "details": "Function to check the amount of tokens that an owner allowed to a spender.",
        "params": {
          "owner": "address The address which owns the funds.",
          "spender": "address The address which will spend the funds."
        },
        "return": "A uint256 specifying the amount of tokens still available for the spender."
      },
      "approve(address,uint256)": {
        "details": "Approve the passed address to spend the specified amount of tokens on behalf of msg.sender. Beware that changing an allowance with this method brings the risk that someone may use both the old and the new allowance by unfortunate transaction ordering. One possible solution to mitigate this race condition is to first reduce the spender's allowance to 0 and set the desired value afterwards: https://github.com/ethereum/EIPs/issues/20#issuecomment-263524729",
        "params": {
          "spender": "The address which will spend the funds.",
          "value": "The amount of tokens to be spent."
        }
      },
      "balanceOf(address)": {
        "details": "Function to return a balance of the address.",
        "return": "A uint256 specifying the amount of tokens by the spender."
      },
      "decreaseAllowance(address,uint256)": {
        "details": "Decrease the amount of tokens that an owner allowed to a spender. approve should be called when allowed_[spender] == 0. To decrement allowed value is better to use this function to avoid 2 calls (and wait until the first transaction is mined) From MonolithDAO Token.sol",
        "params": {
          "spender": "The address which will spend the funds.",
          "subtractedValue": "The amount of tokens to decrease the allowance by."
        }
      },
      "increaseAllowance(address,uint256)": {
        "details": "Increase the amount of tokens that an owner allowed to a spender. approve should be called when allowed_[_spender] == 0. To increment allowed value is better to use this function to avoid 2 calls (and wait until the first transaction is mined) From MonolithDAO Token.sol",
        "params": {
          "addedValue": "The amount of tokens to increase the allowance by.",
          "spender": "The address which will spend the funds."
        }
      },
      "isOwner()": {
        "return": "true if `msg.sender` is the owner of the contract."
      },
      "owner()": {
        "return": "the address of the owner."
      },
      "renounceOwnership()": {
        "details": "Allows the current owner to relinquish control of the contract."
      },
      "totalSupply()": {
        "details": "Function to access total supply of tokens ",
        "return": "A uint256 specifying the total amount of coins in circulation."
      },
      "transfer(address,uint256)": {
        "details": "Public function that allows to transfer tokens. Function implements recognition if the recepeient is a contract or not and executes different subfunctions.",
        "params": {
          "to": "Address of the recepient of the tokens.",
          "value": "The amount of the tokens to be transfered."
        },
        "return": "A bool defining if the transfer was succesful."
      },
      "transfer(address,uint256,bytes)": {
        "details": "Public function that allows to transfer tokens with additional data.  Function implements recognition if the recepeient is a contract or not and executes different subfunctions.",
        "params": {
          "data": "Additional data to be send to the recepient.",
          "to": "Address of the recepient of the tokens.",
          "value": "The amount of the tokens to be transfered."
        },
        "return": "A bool defining if the transfer was succesful."
      },
      "transfer(address,uint256,bytes,string)": {
        "details": "Public function that allows to transfer tokens with additional data  and customized fallback.",
        "params": {
          "custom_fallback": "Customized fallback that is executed after the transfer of the tokens.",
          "data": "Additional data to be send to the recepient.",
          "to": "Address of the recepient of the tokens.",
          "value": "The amount of the tokens to be transfered."
        },
        "return": "A bool defining if the transfer was succesful."
      },
      "transferFrom(address,address,uint256)": {
        "details": "Transfer tokens from one address to another",
        "params": {
          "from": "address The address which you want to send tokens from",
          "to": "address The address which you want to transfer to",
          "value": "uint256 the amount of tokens to be transferred"
        }
      },
      "transferOwnership(address)": {
        "details": "Allows the current owner to transfer control of the contract to a newOwner.",
        "params": {
          "newOwner": "The address to transfer ownership to."
        }
      },
      "withdraw(address,uint256)": {
        "details": "withdraw tokens from the contract. Function can only be called by a contract which holds the money.",
        "params": {
          "_from": "address that executed the contract",
          "_value": "amount of tokens to withdraw"
        }
      }
    },
    "title": "ERC223 Token"
  },
  "userdoc": {
    "methods": {
      "renounceOwnership()": {
        "notice": "Renouncing to ownership will leave the contract without an owner. It will not be possible to call the functions with the `onlyOwner` modifier anymore."
      }
    }
  }
}