{
  "contractName": "EventEmitter",
  "abi": [
    {
      "inputs": [
        {
          "name": "uintValue",
          "type": "uint8"
        },
        {
          "name": "booleanValue",
          "type": "bool"
        },
        {
          "name": "stringValue",
          "type": "string"
        }
      ],
      "payable": false,
      "stateMutability": "nonpayable",
      "type": "constructor"
    },
    {
      "anonymous": false,
      "inputs": [],
      "name": "Argumentless",
      "type": "event"
    },
    {
      "anonymous": false,
      "inputs": [
        {
          "indexed": false,
          "name": "value",
          "type": "uint8"
        }
      ],
      "name": "ShortUint",
      "type": "event"
    },
    {
      "anonymous": false,
      "inputs": [
        {
          "indexed": false,
          "name": "value",
          "type": "int8"
        }
      ],
      "name": "ShortInt",
      "type": "event"
    },
    {
      "anonymous": false,
      "inputs": [
        {
          "indexed": false,
          "name": "value",
          "type": "uint256"
        }
      ],
      "name": "LongUint",
      "type": "event"
    },
    {
      "anonymous": false,
      "inputs": [
        {
          "indexed": false,
          "name": "value",
          "type": "int256"
        }
      ],
      "name": "LongInt",
      "type": "event"
    },
    {
      "anonymous": false,
      "inputs": [
        {
          "indexed": false,
          "name": "value",
          "type": "address"
        }
      ],
      "name": "Address",
      "type": "event"
    },
    {
      "anonymous": false,
      "inputs": [
        {
          "indexed": false,
          "name": "value",
          "type": "bool"
        }
      ],
      "name": "Boolean",
      "type": "event"
    },
    {
      "anonymous": false,
      "inputs": [
        {
          "indexed": false,
          "name": "value",
          "type": "string"
        }
      ],
      "name": "String",
      "type": "event"
    },
    {
      "anonymous": false,
      "inputs": [
        {
          "indexed": false,
          "name": "uintValue",
          "type": "uint256"
        },
        {
          "indexed": false,
          "name": "booleanValue",
          "type": "bool"
        },
        {
          "indexed": false,
          "name": "stringValue",
          "type": "string"
        }
      ],
      "name": "LongUintBooleanString",
      "type": "event"
    },
    {
      "constant": false,
      "inputs": [],
      "name": "emitArgumentless",
      "outputs": [],
      "payable": false,
      "stateMutability": "nonpayable",
      "type": "function"
    },
    {
      "constant": false,
      "inputs": [
        {
          "name": "value",
          "type": "uint8"
        }
      ],
      "name": "emitShortUint",
      "outputs": [],
      "payable": false,
      "stateMutability": "nonpayable",
      "type": "function"
    },
    {
      "constant": false,
      "inputs": [
        {
          "name": "value",
          "type": "int8"
        }
      ],
      "name": "emitShortInt",
      "outputs": [],
      "payable": false,
      "stateMutability": "nonpayable",
      "type": "function"
    },
    {
      "constant": false,
      "inputs": [
        {
          "name": "value",
          "type": "uint256"
        }
      ],
      "name": "emitLongUint",
      "outputs": [],
      "payable": false,
      "stateMutability": "nonpayable",
      "type": "function"
    },
    {
      "constant": false,
      "inputs": [
        {
          "name": "value",
          "type": "int256"
        }
      ],
      "name": "emitLongInt",
      "outputs": [],
      "payable": false,
      "stateMutability": "nonpayable",
      "type": "function"
    },
    {
      "constant": false,
      "inputs": [
        {
          "name": "value",
          "type": "address"
        }
      ],
      "name": "emitAddress",
      "outputs": [],
      "payable": false,
      "stateMutability": "nonpayable",
      "type": "function"
    },
    {
      "constant": false,
      "inputs": [
        {
          "name": "value",
          "type": "bool"
        }
      ],
      "name": "emitBoolean",
      "outputs": [],
      "payable": false,
      "stateMutability": "nonpayable",
      "type": "function"
    },
    {
      "constant": false,
      "inputs": [
        {
          "name": "value",
          "type": "string"
        }
      ],
      "name": "emitString",
      "outputs": [],
      "payable": false,
      "stateMutability": "nonpayable",
      "type": "function"
    },
    {
      "constant": false,
      "inputs": [
        {
          "name": "uintValue",
          "type": "uint256"
        },
        {
          "name": "booleanValue",
          "type": "bool"
        },
        {
          "name": "stringValue",
          "type": "string"
        }
      ],
      "name": "emitLongUintBooleanString",
      "outputs": [],
      "payable": false,
      "stateMutability": "nonpayable",
      "type": "function"
    },
    {
      "constant": false,
      "inputs": [
        {
          "name": "uintValue",
          "type": "uint256"
        },
        {
          "name": "boolValue",
          "type": "bool"
        }
      ],
      "name": "emitLongUintAndBoolean",
      "outputs": [],
      "payable": false,
      "stateMutability": "nonpayable",
      "type": "function"
    },
    {
      "constant": false,
      "inputs": [
        {
          "name": "value",
          "type": "string"
        },
        {
          "name": "emitter",
          "type": "address"
        }
      ],
      "name": "emitStringAndEmitIndirectly",
      "outputs": [],
      "payable": false,
      "stateMutability": "nonpayable",
      "type": "function"
    }
  ],
  "bytecode": "0x608060405234801561001057600080fd5b5060405161090438038061090483398101604081815282516020808501518386015160ff841686529351929590949301927fa6fd495d53216ab7af47447be18c30075b4b9e8fd2c84b6a16c5edd3ee387c6a929081900390910190a160408051831515815290517f5f1a7d146ac3559fb06af8d44e7c16d6e709e4414b75308362587cbdb2ed16119181900360200190a17f589e6a98e08368f5d141bacf55d749854ec881c912e12422b4bb4edee2851a2e816040518080602001828103825283818151815260200191508051906020019080838360005b838110156101005781810151838201526020016100e8565b50505050905090810190601f16801561012d5780820380516001836020036101000a031916815260200191505b509250505060405180910390a15050506107b88061014c6000396000f3006080604052600436106100ae5763ffffffff7c010000000000000000000000000000000000000000000000000000000060003504166314e90a1081146100b35780631ce8a349146100ca57806323b05715146100e25780632536f127146101535780634699764f146101ac5780635b12b18d146101c757806397257674146101df578063c3cccbda14610241578063d39868431461025e578063ec5c3ede14610278578063fd2fa64b146102a6575b600080fd5b3480156100bf57600080fd5b506100c86102c1565b005b3480156100d657600080fd5b506100c86004356102ec565b3480156100ee57600080fd5b506040805160206004803580820135601f81018490048402850184019095528484526100c89436949293602493928401919081908401838280828437509497505050923573ffffffffffffffffffffffffffffffffffffffff16935061032292505050565b34801561015f57600080fd5b506040805160206004803580820135601f81018490048402850184019095528484526100c89436949293602493928401919081908401838280828437509497506104a39650505050505050565b3480156101b857600080fd5b506100c860043560000b61053f565b3480156101d357600080fd5b506100c860043561057b565b3480156101eb57600080fd5b50604080516020600460443581810135601f81018490048402850184019095528484526100c894823594602480351515953695946064949201919081908401838280828437509497506105b19650505050505050565b34801561024d57600080fd5b506100c86004356024351515610663565b34801561026a57600080fd5b506100c860043515156106cf565b34801561028457600080fd5b506100c873ffffffffffffffffffffffffffffffffffffffff60043516610707565b3480156102b257600080fd5b506100c860ff60043516610753565b6040517fbe067714c11211adaac353c472c6022ce9927bc5190b38283b83c29d82cfeac890600090a1565b6040805182815290517fa84b4a529c360270e8511a17443da20c15be835343f9358f548b64cf722dbc909181900360200190a150565b7f589e6a98e08368f5d141bacf55d749854ec881c912e12422b4bb4edee2851a2e826040518080602001828103825283818151815260200191508051906020019080838360005b83811015610381578181015183820152602001610369565b50505050905090810190601f1680156103ae5780820380516001836020036101000a031916815260200191505b509250505060405180910390a16040517f84f390fa00000000000000000000000000000000000000000000000000000000815260206004820181815284516024840152845173ffffffffffffffffffffffffffffffffffffffff8516936384f390fa9387939283926044019185019080838360005b8381101561043b578181015183820152602001610423565b50505050905090810190601f1680156104685780820380516001836020036101000a031916815260200191505b5092505050600060405180830381600087803b15801561048757600080fd5b505af115801561049b573d6000803e3d6000fd5b505050505050565b7f589e6a98e08368f5d141bacf55d749854ec881c912e12422b4bb4edee2851a2e816040518080602001828103825283818151815260200191508051906020019080838360005b838110156105025781810151838201526020016104ea565b50505050905090810190601f16801561052f5780820380516001836020036101000a031916815260200191505b509250505060405180910390a150565b60408051600083810b900b815290517f6dfd09553edfd4a7760ca7fe1965b13913f18ff03029ff89f97f8c111ad8f9fc9181900360200190a150565b6040805182815290517fe5457628747787b496f254674feec51edaeff98055778f739971d3b4002af8d29181900360200190a150565b7f594c091fded0306cf1bf72ebf396116d5ab9ce736177f19bcebd74b1a15dcee9838383604051808481526020018315151515815260200180602001828103825283818151815260200191508051906020019080838360005b8381101561062257818101518382015260200161060a565b50505050905090810190601f16801561064f5780820380516001836020036101000a031916815260200191505b5094505050505060405180910390a1505050565b6040805183815290517fa84b4a529c360270e8511a17443da20c15be835343f9358f548b64cf722dbc909181900360200190a160408051821515815290517f5f1a7d146ac3559fb06af8d44e7c16d6e709e4414b75308362587cbdb2ed16119181900360200190a15050565b60408051821515815290517f5f1a7d146ac3559fb06af8d44e7c16d6e709e4414b75308362587cbdb2ed16119181900360200190a150565b6040805173ffffffffffffffffffffffffffffffffffffffff8316815290517febfb412ded3f9cdb15b75308503b279416e74d382f6ce86eedee0ef3130fa9e39181900360200190a150565b6040805160ff8316815290517fa6fd495d53216ab7af47447be18c30075b4b9e8fd2c84b6a16c5edd3ee387c6a9181900360200190a1505600a165627a7a723058202c8e6d5def4b26edade43456fdf22b4f518c844928f57e479c2317944299a65a0029",
  "source": "pragma solidity ^0.4.24;\n\ncontract EventEmitter {\n    event Argumentless();\n    event ShortUint(uint8 value);\n    event ShortInt(int8 value);\n    event LongUint(uint256 value);\n    event LongInt(int256 value);\n    event Address(address value);\n    event Boolean(bool value);\n    event String(string value);\n    event LongUintBooleanString(uint256 uintValue, bool booleanValue, string stringValue);\n\n    constructor (uint8 uintValue, bool booleanValue, string stringValue) public {\n        emit ShortUint(uintValue);\n        emit Boolean(booleanValue);\n        emit String(stringValue);\n    }\n\n    function emitArgumentless() public {\n        emit Argumentless();\n    }\n\n    function emitShortUint(uint8 value) public {\n        emit ShortUint(value);\n    }\n\n    function emitShortInt(int8 value) public {\n        emit ShortInt(value);\n    }\n\n    function emitLongUint(uint256 value) public {\n        emit LongUint(value);\n    }\n\n    function emitLongInt(int256 value) public {\n        emit LongInt(value);\n    }\n\n    function emitAddress(address value) public {\n        emit Address(value);\n    }\n\n    function emitBoolean(bool value) public {\n        emit Boolean(value);\n    }\n\n    function emitString(string value) public {\n        emit String(value);\n    }\n\n    function emitLongUintBooleanString(uint256 uintValue, bool booleanValue, string stringValue) public {\n        emit LongUintBooleanString(uintValue, booleanValue, stringValue);\n    }\n\n    function emitLongUintAndBoolean(uint256 uintValue, bool boolValue) public {\n        emit LongUint(uintValue);\n        emit Boolean(boolValue);\n    }\n\n    function emitStringAndEmitIndirectly(string value, IndirectEventEmitter emitter) public {\n        emit String(value);\n        emitter.emitStringIndirectly(value);\n    }\n}\n\ncontract IndirectEventEmitter {\n    event IndirectString(string value);\n\n    function emitStringIndirectly(string value) public {\n        emit IndirectString(value);\n    }\n}",
  "sourcePath": "/home/ubuntu/Lendflo-LDF-ERC223/contracts/EventEmitter.sol",
  "compiler": {
    "name": "solc",
    "version": "0.4.24+commit.e67f0147.Linux.g++"
  },
  "schemaVersion": "3.0.1",
  "updatedAt": "2019-01-28T13:07:53.445Z",
  "devdoc": {
    "methods": {}
  },
  "userdoc": {
    "methods": {}
  }
}