{
  "contractName": "EventEmitter",
  "abi": [
    {
      "inputs": [
        {
          "name": "uintValue",
          "type": "uint8"
        },
        {
          "name": "booleanValue",
          "type": "bool"
        },
        {
          "name": "stringValue",
          "type": "string"
        }
      ],
      "payable": false,
      "stateMutability": "nonpayable",
      "type": "constructor"
    },
    {
      "anonymous": false,
      "inputs": [],
      "name": "Argumentless",
      "type": "event"
    },
    {
      "anonymous": false,
      "inputs": [
        {
          "indexed": false,
          "name": "value",
          "type": "uint8"
        }
      ],
      "name": "ShortUint",
      "type": "event"
    },
    {
      "anonymous": false,
      "inputs": [
        {
          "indexed": false,
          "name": "value",
          "type": "int8"
        }
      ],
      "name": "ShortInt",
      "type": "event"
    },
    {
      "anonymous": false,
      "inputs": [
        {
          "indexed": false,
          "name": "value",
          "type": "uint256"
        }
      ],
      "name": "LongUint",
      "type": "event"
    },
    {
      "anonymous": false,
      "inputs": [
        {
          "indexed": false,
          "name": "value",
          "type": "int256"
        }
      ],
      "name": "LongInt",
      "type": "event"
    },
    {
      "anonymous": false,
      "inputs": [
        {
          "indexed": false,
          "name": "value",
          "type": "address"
        }
      ],
      "name": "Address",
      "type": "event"
    },
    {
      "anonymous": false,
      "inputs": [
        {
          "indexed": false,
          "name": "value",
          "type": "bool"
        }
      ],
      "name": "Boolean",
      "type": "event"
    },
    {
      "anonymous": false,
      "inputs": [
        {
          "indexed": false,
          "name": "value",
          "type": "string"
        }
      ],
      "name": "String",
      "type": "event"
    },
    {
      "anonymous": false,
      "inputs": [
        {
          "indexed": false,
          "name": "uintValue",
          "type": "uint256"
        },
        {
          "indexed": false,
          "name": "booleanValue",
          "type": "bool"
        },
        {
          "indexed": false,
          "name": "stringValue",
          "type": "string"
        }
      ],
      "name": "LongUintBooleanString",
      "type": "event"
    },
    {
      "constant": false,
      "inputs": [],
      "name": "emitArgumentless",
      "outputs": [],
      "payable": false,
      "stateMutability": "nonpayable",
      "type": "function"
    },
    {
      "constant": false,
      "inputs": [
        {
          "name": "value",
          "type": "uint8"
        }
      ],
      "name": "emitShortUint",
      "outputs": [],
      "payable": false,
      "stateMutability": "nonpayable",
      "type": "function"
    },
    {
      "constant": false,
      "inputs": [
        {
          "name": "value",
          "type": "int8"
        }
      ],
      "name": "emitShortInt",
      "outputs": [],
      "payable": false,
      "stateMutability": "nonpayable",
      "type": "function"
    },
    {
      "constant": false,
      "inputs": [
        {
          "name": "value",
          "type": "uint256"
        }
      ],
      "name": "emitLongUint",
      "outputs": [],
      "payable": false,
      "stateMutability": "nonpayable",
      "type": "function"
    },
    {
      "constant": false,
      "inputs": [
        {
          "name": "value",
          "type": "int256"
        }
      ],
      "name": "emitLongInt",
      "outputs": [],
      "payable": false,
      "stateMutability": "nonpayable",
      "type": "function"
    },
    {
      "constant": false,
      "inputs": [
        {
          "name": "value",
          "type": "address"
        }
      ],
      "name": "emitAddress",
      "outputs": [],
      "payable": false,
      "stateMutability": "nonpayable",
      "type": "function"
    },
    {
      "constant": false,
      "inputs": [
        {
          "name": "value",
          "type": "bool"
        }
      ],
      "name": "emitBoolean",
      "outputs": [],
      "payable": false,
      "stateMutability": "nonpayable",
      "type": "function"
    },
    {
      "constant": false,
      "inputs": [
        {
          "name": "value",
          "type": "string"
        }
      ],
      "name": "emitString",
      "outputs": [],
      "payable": false,
      "stateMutability": "nonpayable",
      "type": "function"
    },
    {
      "constant": false,
      "inputs": [
        {
          "name": "uintValue",
          "type": "uint256"
        },
        {
          "name": "booleanValue",
          "type": "bool"
        },
        {
          "name": "stringValue",
          "type": "string"
        }
      ],
      "name": "emitLongUintBooleanString",
      "outputs": [],
      "payable": false,
      "stateMutability": "nonpayable",
      "type": "function"
    },
    {
      "constant": false,
      "inputs": [
        {
          "name": "uintValue",
          "type": "uint256"
        },
        {
          "name": "boolValue",
          "type": "bool"
        }
      ],
      "name": "emitLongUintAndBoolean",
      "outputs": [],
      "payable": false,
      "stateMutability": "nonpayable",
      "type": "function"
    },
    {
      "constant": false,
      "inputs": [
        {
          "name": "value",
          "type": "string"
        },
        {
          "name": "emitter",
          "type": "address"
        }
      ],
      "name": "emitStringAndEmitIndirectly",
      "outputs": [],
      "payable": false,
      "stateMutability": "nonpayable",
      "type": "function"
    }
  ],
  "bytecode": "0x608060405234801561001057600080fd5b50604051610a56380380610a568339810180604052810190808051906020019092919080519060200190929190805182019291905050507fa6fd495d53216ab7af47447be18c30075b4b9e8fd2c84b6a16c5edd3ee387c6a83604051808260ff1660ff16815260200191505060405180910390a17f5f1a7d146ac3559fb06af8d44e7c16d6e709e4414b75308362587cbdb2ed161182604051808215151515815260200191505060405180910390a17f589e6a98e08368f5d141bacf55d749854ec881c912e12422b4bb4edee2851a2e816040518080602001828103825283818151815260200191508051906020019080838360005b83811015610121578082015181840152602081019050610106565b50505050905090810190601f16801561014e5780820380516001836020036101000a031916815260200191505b509250505060405180910390a15050506108e98061016d6000396000f3006080604052600436106100af576000357c0100000000000000000000000000000000000000000000000000000000900463ffffffff16806314e90a10146100b45780631ce8a349146100cb57806323b05715146100f85780632536f127146101815780634699764f146101ea5780635b12b18d1461021a5780639725767414610247578063c3cccbda146102c6578063d3986843146102ff578063ec5c3ede1461032e578063fd2fa64b14610371575b600080fd5b3480156100c057600080fd5b506100c96103a1565b005b3480156100d757600080fd5b506100f6600480360381019080803590602001909291905050506103cf565b005b34801561010457600080fd5b5061017f600480360381019080803590602001908201803590602001908080601f0160208091040260200160405190810160405280939291908181526020018383808284378201915050505050509192919290803573ffffffffffffffffffffffffffffffffffffffff169060200190929190505050610409565b005b34801561018d57600080fd5b506101e8600480360381019080803590602001908201803590602001908080601f0160208091040260200160405190810160405280939291908181526020018383808284378201915050505050509192919290505050610595565b005b3480156101f657600080fd5b50610218600480360381019080803560000b9060200190929190505050610634565b005b34801561022657600080fd5b5061024560048036038101908080359060200190929190505050610674565b005b34801561025357600080fd5b506102c460048036038101908080359060200190929190803515159060200190929190803590602001908201803590602001908080601f01602080910402602001604051908101604052809392919081815260200183838082843782019150505050505091929192905050506106ae565b005b3480156102d257600080fd5b506102fd60048036038101908080359060200190929190803515159060200190929190505050610763565b005b34801561030b57600080fd5b5061032c6004803603810190808035151590602001909291905050506107d9565b005b34801561033a57600080fd5b5061036f600480360381019080803573ffffffffffffffffffffffffffffffffffffffff169060200190929190505050610817565b005b34801561037d57600080fd5b5061039f600480360381019080803560ff16906020019092919050505061087d565b005b7fbe067714c11211adaac353c472c6022ce9927bc5190b38283b83c29d82cfeac860405160405180910390a1565b7fa84b4a529c360270e8511a17443da20c15be835343f9358f548b64cf722dbc90816040518082815260200191505060405180910390a150565b7f589e6a98e08368f5d141bacf55d749854ec881c912e12422b4bb4edee2851a2e826040518080602001828103825283818151815260200191508051906020019080838360005b8381101561046b578082015181840152602081019050610450565b50505050905090810190601f1680156104985780820380516001836020036101000a031916815260200191505b509250505060405180910390a18073ffffffffffffffffffffffffffffffffffffffff166384f390fa836040518263ffffffff167c01000000000000000000000000000000000000000000000000000000000281526004018080602001828103825283818151815260200191508051906020019080838360005b8381101561052d578082015181840152602081019050610512565b50505050905090810190601f16801561055a5780820380516001836020036101000a031916815260200191505b5092505050600060405180830381600087803b15801561057957600080fd5b505af115801561058d573d6000803e3d6000fd5b505050505050565b7f589e6a98e08368f5d141bacf55d749854ec881c912e12422b4bb4edee2851a2e816040518080602001828103825283818151815260200191508051906020019080838360005b838110156105f75780820151818401526020810190506105dc565b50505050905090810190601f1680156106245780820380516001836020036101000a031916815260200191505b509250505060405180910390a150565b7f6dfd09553edfd4a7760ca7fe1965b13913f18ff03029ff89f97f8c111ad8f9fc81604051808260000b60000b815260200191505060405180910390a150565b7fe5457628747787b496f254674feec51edaeff98055778f739971d3b4002af8d2816040518082815260200191505060405180910390a150565b7f594c091fded0306cf1bf72ebf396116d5ab9ce736177f19bcebd74b1a15dcee9838383604051808481526020018315151515815260200180602001828103825283818151815260200191508051906020019080838360005b83811015610722578082015181840152602081019050610707565b50505050905090810190601f16801561074f5780820380516001836020036101000a031916815260200191505b5094505050505060405180910390a1505050565b7fa84b4a529c360270e8511a17443da20c15be835343f9358f548b64cf722dbc90826040518082815260200191505060405180910390a17f5f1a7d146ac3559fb06af8d44e7c16d6e709e4414b75308362587cbdb2ed161181604051808215151515815260200191505060405180910390a15050565b7f5f1a7d146ac3559fb06af8d44e7c16d6e709e4414b75308362587cbdb2ed161181604051808215151515815260200191505060405180910390a150565b7febfb412ded3f9cdb15b75308503b279416e74d382f6ce86eedee0ef3130fa9e381604051808273ffffffffffffffffffffffffffffffffffffffff1673ffffffffffffffffffffffffffffffffffffffff16815260200191505060405180910390a150565b7fa6fd495d53216ab7af47447be18c30075b4b9e8fd2c84b6a16c5edd3ee387c6a81604051808260ff1660ff16815260200191505060405180910390a1505600a165627a7a723058206fcabcd0aecf1c20617adcf7b31a22d1d07cb9dfaed50647d945c574ab8e6aab0029",
  "source": "pragma solidity ^0.4.24;\n\ncontract EventEmitter {\n    event Argumentless();\n    event ShortUint(uint8 value);\n    event ShortInt(int8 value);\n    event LongUint(uint256 value);\n    event LongInt(int256 value);\n    event Address(address value);\n    event Boolean(bool value);\n    event String(string value);\n    event LongUintBooleanString(uint256 uintValue, bool booleanValue, string stringValue);\n\n    constructor (uint8 uintValue, bool booleanValue, string stringValue) public {\n        emit ShortUint(uintValue);\n        emit Boolean(booleanValue);\n        emit String(stringValue);\n    }\n\n    function emitArgumentless() public {\n        emit Argumentless();\n    }\n\n    function emitShortUint(uint8 value) public {\n        emit ShortUint(value);\n    }\n\n    function emitShortInt(int8 value) public {\n        emit ShortInt(value);\n    }\n\n    function emitLongUint(uint256 value) public {\n        emit LongUint(value);\n    }\n\n    function emitLongInt(int256 value) public {\n        emit LongInt(value);\n    }\n\n    function emitAddress(address value) public {\n        emit Address(value);\n    }\n\n    function emitBoolean(bool value) public {\n        emit Boolean(value);\n    }\n\n    function emitString(string value) public {\n        emit String(value);\n    }\n\n    function emitLongUintBooleanString(uint256 uintValue, bool booleanValue, string stringValue) public {\n        emit LongUintBooleanString(uintValue, booleanValue, stringValue);\n    }\n\n    function emitLongUintAndBoolean(uint256 uintValue, bool boolValue) public {\n        emit LongUint(uintValue);\n        emit Boolean(boolValue);\n    }\n\n    function emitStringAndEmitIndirectly(string value, IndirectEventEmitter emitter) public {\n        emit String(value);\n        emitter.emitStringIndirectly(value);\n    }\n}\n\ncontract IndirectEventEmitter {\n    event IndirectString(string value);\n\n    function emitStringIndirectly(string value) public {\n        emit IndirectString(value);\n    }\n}",
  "sourcePath": "/home/ec2-user/Lendflo-LDF-ERC223/contracts/EventEmitter.sol",
  "compiler": {
    "name": "solc",
    "version": "0.4.24+commit.e67f0147.Emscripten.clang"
  },
  "schemaVersion": "2.0.1",
  "updatedAt": "2018-12-21T10:19:40.010Z"
}