{
  "contractName": "Failer",
  "abi": [
    {
      "constant": true,
      "inputs": [],
      "name": "dontFail",
      "outputs": [],
      "payable": false,
      "stateMutability": "pure",
      "type": "function"
    },
    {
      "constant": true,
      "inputs": [],
      "name": "failWithRevert",
      "outputs": [],
      "payable": false,
      "stateMutability": "pure",
      "type": "function"
    },
    {
      "constant": true,
      "inputs": [],
      "name": "failWithThrow",
      "outputs": [],
      "payable": false,
      "stateMutability": "pure",
      "type": "function"
    },
    {
      "constant": false,
      "inputs": [],
      "name": "failWithOutOfGas",
      "outputs": [],
      "payable": false,
      "stateMutability": "nonpayable",
      "type": "function"
    }
  ],
  "bytecode": "0x608060405234801561001057600080fd5b5061014d806100206000396000f3006080604052600436106100615763ffffffff7c0100000000000000000000000000000000000000000000000000000000600035041663679f63a181146100665780639ad8f1c41461007d578063e7c46bb714610092578063f050e4a5146100a7575b600080fd5b34801561007257600080fd5b5061007b6100bc565b005b34801561008957600080fd5b5061007b6100be565b34801561009e57600080fd5b5061007b6100c0565b3480156100b357600080fd5b5061007b610061565b565bfe5b60005b79010000000000000000000000000000000000000000000000000081101561011e5760008054600181810183559180527f290decd9548b62a8d60345a988386fc84ba6bc95484008f6362f93160ef3e56301829055016100c3565b505600a165627a7a7230582029f849508abda4b1a69535765fa13d84434cdb5c1c91fc32df3fab21738a7cc80029",
  "source": "pragma solidity ^0.4.24;\n\ncontract Failer {\n    uint256[] private array;\n\n    function dontFail() public pure {\n    }\n\n    function failWithRevert() public pure {\n        revert();\n    }\n\n    function failWithThrow() public pure {\n        assert(false);\n    }\n\n    function failWithOutOfGas() public {\n        for (uint256 i = 0; i < 2**200; ++i) {\n            array.push(i);\n        }\n    }\n}\n",
  "sourcePath": "/home/ubuntu/Lendflo-LDF-ERC223/contracts/Failer.sol",
  "compiler": {
    "name": "solc",
    "version": "0.4.24+commit.e67f0147.Linux.g++"
  },
  "schemaVersion": "3.0.1",
  "updatedAt": "2019-01-28T13:07:53.447Z",
  "devdoc": {
    "methods": {}
  },
  "userdoc": {
    "methods": {}
  }
}