{
  "contractName": "Failer",
  "abi": [
    {
      "constant": true,
      "inputs": [],
      "name": "dontFail",
      "outputs": [],
      "payable": false,
      "stateMutability": "pure",
      "type": "function"
    },
    {
      "constant": true,
      "inputs": [],
      "name": "failWithRevert",
      "outputs": [],
      "payable": false,
      "stateMutability": "pure",
      "type": "function"
    },
    {
      "constant": true,
      "inputs": [],
      "name": "failWithThrow",
      "outputs": [],
      "payable": false,
      "stateMutability": "pure",
      "type": "function"
    },
    {
      "constant": false,
      "inputs": [],
      "name": "failWithOutOfGas",
      "outputs": [],
      "payable": false,
      "stateMutability": "nonpayable",
      "type": "function"
    }
  ],
  "bytecode": "0x608060405234801561001057600080fd5b50610164806100206000396000f300608060405260043610610062576000357c0100000000000000000000000000000000000000000000000000000000900463ffffffff168063679f63a1146100675780639ad8f1c41461007e578063e7c46bb714610095578063f050e4a5146100ac575b600080fd5b34801561007357600080fd5b5061007c6100c3565b005b34801561008a57600080fd5b506100936100c5565b005b3480156100a157600080fd5b506100aa6100d1565b005b3480156100b857600080fd5b506100c1610133565b005b565b600015156100cf57fe5b565b60008090505b7901000000000000000000000000000000000000000000000000008110156101305760008190806001815401808255809150509060018203906000526020600020016000909192909190915055508060010190506100d7565b50565b600080fd00a165627a7a7230582018f6e96abfdadd9e96e59611717f6306099559709d69c231fdbe2c78fb4ab70a0029",
  "source": "pragma solidity ^0.4.24;\n\ncontract Failer {\n    uint256[] private array;\n\n    function dontFail() public pure {\n    }\n\n    function failWithRevert() public pure {\n        revert();\n    }\n\n    function failWithThrow() public pure {\n        assert(false);\n    }\n\n    function failWithOutOfGas() public {\n        for (uint256 i = 0; i < 2**200; ++i) {\n            array.push(i);\n        }\n    }\n}\n",
  "sourcePath": "/home/ec2-user/Lendflo-LDF-ERC223/contracts/Failer.sol",
  "compiler": {
    "name": "solc",
    "version": "0.4.24+commit.e67f0147.Emscripten.clang"
  },
  "schemaVersion": "2.0.1",
  "updatedAt": "2018-12-21T10:19:39.977Z"
}