{
  "contractName": "IndirectEventEmitter",
  "abi": [
    {
      "anonymous": false,
      "inputs": [
        {
          "indexed": false,
          "name": "value",
          "type": "string"
        }
      ],
      "name": "IndirectString",
      "type": "event"
    },
    {
      "constant": false,
      "inputs": [
        {
          "name": "value",
          "type": "string"
        }
      ],
      "name": "emitStringIndirectly",
      "outputs": [],
      "payable": false,
      "stateMutability": "nonpayable",
      "type": "function"
    }
  ],
  "bytecode": "0x608060405234801561001057600080fd5b5061017a806100206000396000f300608060405260043610610041576000357c0100000000000000000000000000000000000000000000000000000000900463ffffffff16806384f390fa14610046575b600080fd5b34801561005257600080fd5b506100ad600480360381019080803590602001908201803590602001908080601f01602080910402602001604051908101604052809392919081815260200183838082843782019150505050505091929192905050506100af565b005b7ff58431b083f570a2ac1a2ef2f04cfc1853f71c6c0794807e35d5cdb99834b0ca816040518080602001828103825283818151815260200191508051906020019080838360005b838110156101115780820151818401526020810190506100f6565b50505050905090810190601f16801561013e5780820380516001836020036101000a031916815260200191505b509250505060405180910390a1505600a165627a7a723058201402ce3f6c9ed3f47b3b040e657e7c23d2c33611ed79e90311f3266f7b6c31760029",
  "source": "pragma solidity ^0.4.24;\n\ncontract EventEmitter {\n    event Argumentless();\n    event ShortUint(uint8 value);\n    event ShortInt(int8 value);\n    event LongUint(uint256 value);\n    event LongInt(int256 value);\n    event Address(address value);\n    event Boolean(bool value);\n    event String(string value);\n    event LongUintBooleanString(uint256 uintValue, bool booleanValue, string stringValue);\n\n    constructor (uint8 uintValue, bool booleanValue, string stringValue) public {\n        emit ShortUint(uintValue);\n        emit Boolean(booleanValue);\n        emit String(stringValue);\n    }\n\n    function emitArgumentless() public {\n        emit Argumentless();\n    }\n\n    function emitShortUint(uint8 value) public {\n        emit ShortUint(value);\n    }\n\n    function emitShortInt(int8 value) public {\n        emit ShortInt(value);\n    }\n\n    function emitLongUint(uint256 value) public {\n        emit LongUint(value);\n    }\n\n    function emitLongInt(int256 value) public {\n        emit LongInt(value);\n    }\n\n    function emitAddress(address value) public {\n        emit Address(value);\n    }\n\n    function emitBoolean(bool value) public {\n        emit Boolean(value);\n    }\n\n    function emitString(string value) public {\n        emit String(value);\n    }\n\n    function emitLongUintBooleanString(uint256 uintValue, bool booleanValue, string stringValue) public {\n        emit LongUintBooleanString(uintValue, booleanValue, stringValue);\n    }\n\n    function emitLongUintAndBoolean(uint256 uintValue, bool boolValue) public {\n        emit LongUint(uintValue);\n        emit Boolean(boolValue);\n    }\n\n    function emitStringAndEmitIndirectly(string value, IndirectEventEmitter emitter) public {\n        emit String(value);\n        emitter.emitStringIndirectly(value);\n    }\n}\n\ncontract IndirectEventEmitter {\n    event IndirectString(string value);\n\n    function emitStringIndirectly(string value) public {\n        emit IndirectString(value);\n    }\n}",
  "sourcePath": "/home/ec2-user/Lendflo-LDF-ERC223/contracts/EventEmitter.sol",
  "compiler": {
    "name": "solc",
    "version": "0.4.24+commit.e67f0147.Emscripten.clang"
  },
  "schemaVersion": "2.0.1",
  "updatedAt": "2018-12-21T10:19:40.006Z"
}