{
  "contractName": "IndirectEventEmitter",
  "abi": [
    {
      "anonymous": false,
      "inputs": [
        {
          "indexed": false,
          "name": "value",
          "type": "string"
        }
      ],
      "name": "IndirectString",
      "type": "event"
    },
    {
      "constant": false,
      "inputs": [
        {
          "name": "value",
          "type": "string"
        }
      ],
      "name": "emitStringIndirectly",
      "outputs": [],
      "payable": false,
      "stateMutability": "nonpayable",
      "type": "function"
    }
  ],
  "bytecode": "0x608060405234801561001057600080fd5b5061017a806100206000396000f300608060405260043610610041576000357c0100000000000000000000000000000000000000000000000000000000900463ffffffff16806384f390fa14610046575b600080fd5b34801561005257600080fd5b506100ad600480360381019080803590602001908201803590602001908080601f01602080910402602001604051908101604052809392919081815260200183838082843782019150505050505091929192905050506100af565b005b7ff58431b083f570a2ac1a2ef2f04cfc1853f71c6c0794807e35d5cdb99834b0ca816040518080602001828103825283818151815260200191508051906020019080838360005b838110156101115780820151818401526020810190506100f6565b50505050905090810190601f16801561013e5780820380516001836020036101000a031916815260200191505b509250505060405180910390a1505600a165627a7a72305820df1002975de0c34748c047608f9ddfde6ed0e61cfefe76e2351b81a32c5ca6d00029",
  "source": "pragma solidity ^0.4.24;\r\n\r\ncontract EventEmitter {\r\n    event Argumentless();\r\n    event ShortUint(uint8 value);\r\n    event ShortInt(int8 value);\r\n    event LongUint(uint256 value);\r\n    event LongInt(int256 value);\r\n    event Address(address value);\r\n    event Boolean(bool value);\r\n    event String(string value);\r\n    event LongUintBooleanString(uint256 uintValue, bool booleanValue, string stringValue);\r\n\r\n    constructor (uint8 uintValue, bool booleanValue, string stringValue) public {\r\n        emit ShortUint(uintValue);\r\n        emit Boolean(booleanValue);\r\n        emit String(stringValue);\r\n    }\r\n\r\n    function emitArgumentless() public {\r\n        emit Argumentless();\r\n    }\r\n\r\n    function emitShortUint(uint8 value) public {\r\n        emit ShortUint(value);\r\n    }\r\n\r\n    function emitShortInt(int8 value) public {\r\n        emit ShortInt(value);\r\n    }\r\n\r\n    function emitLongUint(uint256 value) public {\r\n        emit LongUint(value);\r\n    }\r\n\r\n    function emitLongInt(int256 value) public {\r\n        emit LongInt(value);\r\n    }\r\n\r\n    function emitAddress(address value) public {\r\n        emit Address(value);\r\n    }\r\n\r\n    function emitBoolean(bool value) public {\r\n        emit Boolean(value);\r\n    }\r\n\r\n    function emitString(string value) public {\r\n        emit String(value);\r\n    }\r\n\r\n    function emitLongUintBooleanString(uint256 uintValue, bool booleanValue, string stringValue) public {\r\n        emit LongUintBooleanString(uintValue, booleanValue, stringValue);\r\n    }\r\n\r\n    function emitLongUintAndBoolean(uint256 uintValue, bool boolValue) public {\r\n        emit LongUint(uintValue);\r\n        emit Boolean(boolValue);\r\n    }\r\n\r\n    function emitStringAndEmitIndirectly(string value, IndirectEventEmitter emitter) public {\r\n        emit String(value);\r\n        emitter.emitStringIndirectly(value);\r\n    }\r\n}\r\n\r\ncontract IndirectEventEmitter {\r\n    event IndirectString(string value);\r\n\r\n    function emitStringIndirectly(string value) public {\r\n        emit IndirectString(value);\r\n    }\r\n}",
  "sourcePath": "C:\\Users\\Lendflo\\Documents\\GitHub\\Lendflo-Commodo\\open-sourcing\\contracts\\EventEmitter.sol",
  "compiler": {
    "name": "solc",
    "version": "0.4.24+commit.e67f0147.Emscripten.clang"
  },
  "schemaVersion": "2.0.1",
  "updatedAt": "2018-12-13T10:38:16.932Z"
}