{
  "contractName": "LDFToken",
  "abi": [
    {
      "constant": true,
      "inputs": [],
      "name": "name",
      "outputs": [
        {
          "name": "",
          "type": "string"
        }
      ],
      "payable": false,
      "stateMutability": "view",
      "type": "function"
    },
    {
      "constant": false,
      "inputs": [
        {
          "name": "spender",
          "type": "address"
        },
        {
          "name": "value",
          "type": "uint256"
        }
      ],
      "name": "approve",
      "outputs": [
        {
          "name": "",
          "type": "bool"
        }
      ],
      "payable": false,
      "stateMutability": "nonpayable",
      "type": "function"
    },
    {
      "constant": true,
      "inputs": [],
      "name": "totalSupply",
      "outputs": [
        {
          "name": "",
          "type": "uint256"
        }
      ],
      "payable": false,
      "stateMutability": "view",
      "type": "function"
    },
    {
      "constant": false,
      "inputs": [
        {
          "name": "from",
          "type": "address"
        },
        {
          "name": "to",
          "type": "address"
        },
        {
          "name": "value",
          "type": "uint256"
        }
      ],
      "name": "transferFrom",
      "outputs": [
        {
          "name": "",
          "type": "bool"
        }
      ],
      "payable": false,
      "stateMutability": "nonpayable",
      "type": "function"
    },
    {
      "constant": true,
      "inputs": [],
      "name": "decimals",
      "outputs": [
        {
          "name": "",
          "type": "uint8"
        }
      ],
      "payable": false,
      "stateMutability": "view",
      "type": "function"
    },
    {
      "constant": false,
      "inputs": [
        {
          "name": "spender",
          "type": "address"
        },
        {
          "name": "addedValue",
          "type": "uint256"
        }
      ],
      "name": "increaseAllowance",
      "outputs": [
        {
          "name": "",
          "type": "bool"
        }
      ],
      "payable": false,
      "stateMutability": "nonpayable",
      "type": "function"
    },
    {
      "constant": false,
      "inputs": [
        {
          "name": "value",
          "type": "uint256"
        }
      ],
      "name": "burn",
      "outputs": [],
      "payable": false,
      "stateMutability": "nonpayable",
      "type": "function"
    },
    {
      "constant": true,
      "inputs": [
        {
          "name": "owner",
          "type": "address"
        }
      ],
      "name": "balanceOf",
      "outputs": [
        {
          "name": "",
          "type": "uint256"
        }
      ],
      "payable": false,
      "stateMutability": "view",
      "type": "function"
    },
    {
      "constant": false,
      "inputs": [],
      "name": "renounceOwnership",
      "outputs": [],
      "payable": false,
      "stateMutability": "nonpayable",
      "type": "function"
    },
    {
      "constant": false,
      "inputs": [
        {
          "name": "from",
          "type": "address"
        },
        {
          "name": "value",
          "type": "uint256"
        }
      ],
      "name": "burnFrom",
      "outputs": [],
      "payable": false,
      "stateMutability": "nonpayable",
      "type": "function"
    },
    {
      "constant": true,
      "inputs": [],
      "name": "owner",
      "outputs": [
        {
          "name": "",
          "type": "address"
        }
      ],
      "payable": false,
      "stateMutability": "view",
      "type": "function"
    },
    {
      "constant": true,
      "inputs": [],
      "name": "isOwner",
      "outputs": [
        {
          "name": "",
          "type": "bool"
        }
      ],
      "payable": false,
      "stateMutability": "view",
      "type": "function"
    },
    {
      "constant": true,
      "inputs": [],
      "name": "symbol",
      "outputs": [
        {
          "name": "",
          "type": "string"
        }
      ],
      "payable": false,
      "stateMutability": "view",
      "type": "function"
    },
    {
      "constant": false,
      "inputs": [
        {
          "name": "account",
          "type": "address"
        }
      ],
      "name": "addMinter",
      "outputs": [],
      "payable": false,
      "stateMutability": "nonpayable",
      "type": "function"
    },
    {
      "constant": false,
      "inputs": [],
      "name": "renounceMinter",
      "outputs": [],
      "payable": false,
      "stateMutability": "nonpayable",
      "type": "function"
    },
    {
      "constant": false,
      "inputs": [
        {
          "name": "spender",
          "type": "address"
        },
        {
          "name": "subtractedValue",
          "type": "uint256"
        }
      ],
      "name": "decreaseAllowance",
      "outputs": [
        {
          "name": "",
          "type": "bool"
        }
      ],
      "payable": false,
      "stateMutability": "nonpayable",
      "type": "function"
    },
    {
      "constant": false,
      "inputs": [
        {
          "name": "to",
          "type": "address"
        },
        {
          "name": "value",
          "type": "uint256"
        }
      ],
      "name": "transfer",
      "outputs": [
        {
          "name": "success",
          "type": "bool"
        }
      ],
      "payable": false,
      "stateMutability": "nonpayable",
      "type": "function"
    },
    {
      "constant": true,
      "inputs": [
        {
          "name": "account",
          "type": "address"
        }
      ],
      "name": "isMinter",
      "outputs": [
        {
          "name": "",
          "type": "bool"
        }
      ],
      "payable": false,
      "stateMutability": "view",
      "type": "function"
    },
    {
      "constant": false,
      "inputs": [
        {
          "name": "to",
          "type": "address"
        },
        {
          "name": "value",
          "type": "uint256"
        },
        {
          "name": "data",
          "type": "bytes"
        }
      ],
      "name": "transfer",
      "outputs": [
        {
          "name": "success",
          "type": "bool"
        }
      ],
      "payable": false,
      "stateMutability": "nonpayable",
      "type": "function"
    },
    {
      "constant": true,
      "inputs": [
        {
          "name": "owner",
          "type": "address"
        },
        {
          "name": "spender",
          "type": "address"
        }
      ],
      "name": "allowance",
      "outputs": [
        {
          "name": "",
          "type": "uint256"
        }
      ],
      "payable": false,
      "stateMutability": "view",
      "type": "function"
    },
    {
      "constant": false,
      "inputs": [
        {
          "name": "newOwner",
          "type": "address"
        }
      ],
      "name": "transferOwnership",
      "outputs": [],
      "payable": false,
      "stateMutability": "nonpayable",
      "type": "function"
    },
    {
      "constant": false,
      "inputs": [
        {
          "name": "_holder",
          "type": "address"
        },
        {
          "name": "_amount",
          "type": "uint256"
        }
      ],
      "name": "withdraw",
      "outputs": [],
      "payable": false,
      "stateMutability": "nonpayable",
      "type": "function"
    },
    {
      "constant": false,
      "inputs": [
        {
          "name": "to",
          "type": "address"
        },
        {
          "name": "value",
          "type": "uint256"
        },
        {
          "name": "data",
          "type": "bytes"
        },
        {
          "name": "custom_fallback",
          "type": "string"
        }
      ],
      "name": "transfer",
      "outputs": [
        {
          "name": "success",
          "type": "bool"
        }
      ],
      "payable": false,
      "stateMutability": "nonpayable",
      "type": "function"
    },
    {
      "inputs": [],
      "payable": false,
      "stateMutability": "nonpayable",
      "type": "constructor"
    },
    {
      "anonymous": false,
      "inputs": [
        {
          "indexed": true,
          "name": "account",
          "type": "address"
        }
      ],
      "name": "MinterAdded",
      "type": "event"
    },
    {
      "anonymous": false,
      "inputs": [
        {
          "indexed": true,
          "name": "account",
          "type": "address"
        }
      ],
      "name": "MinterRemoved",
      "type": "event"
    },
    {
      "anonymous": false,
      "inputs": [
        {
          "indexed": true,
          "name": "from",
          "type": "address"
        },
        {
          "indexed": true,
          "name": "to",
          "type": "address"
        },
        {
          "indexed": false,
          "name": "value",
          "type": "uint256"
        },
        {
          "indexed": true,
          "name": "data",
          "type": "bytes"
        }
      ],
      "name": "TransferData",
      "type": "event"
    },
    {
      "anonymous": false,
      "inputs": [
        {
          "indexed": true,
          "name": "owner",
          "type": "address"
        },
        {
          "indexed": true,
          "name": "spender",
          "type": "address"
        },
        {
          "indexed": false,
          "name": "value",
          "type": "uint256"
        }
      ],
      "name": "Approval",
      "type": "event"
    },
    {
      "anonymous": false,
      "inputs": [
        {
          "indexed": true,
          "name": "from",
          "type": "address"
        },
        {
          "indexed": true,
          "name": "to",
          "type": "address"
        },
        {
          "indexed": false,
          "name": "value",
          "type": "uint256"
        }
      ],
      "name": "Transfer",
      "type": "event"
    },
    {
      "anonymous": false,
      "inputs": [
        {
          "indexed": false,
          "name": "",
          "type": "uint256"
        }
      ],
      "name": "Test1",
      "type": "event"
    },
    {
      "anonymous": false,
      "inputs": [
        {
          "indexed": false,
          "name": "",
          "type": "address"
        }
      ],
      "name": "Test2",
      "type": "event"
    },
    {
      "anonymous": false,
      "inputs": [
        {
          "indexed": true,
          "name": "previousOwner",
          "type": "address"
        },
        {
          "indexed": true,
          "name": "newOwner",
          "type": "address"
        }
      ],
      "name": "OwnershipTransferred",
      "type": "event"
    }
  ],
  "bytecode": "0x60c0604052601460808190527f4c656e64666c6f204469676974616c204669617400000000000000000000000060a0908152620000409160069190620001e8565b506040805180820190915260038082527f4c4446000000000000000000000000000000000000000000000000000000000060209092019182526200008791600791620001e8565b506008805460ff191690553480156200009f57600080fd5b5060008054600160a060020a0319163317808255604051600160a060020a039190911691907f8be0079c531659141344cd1fd0a4f28419497f9722a3daafe3b4186f6b6457e0908290a3620000fd3364010000000062000103810204565b6200028d565b6200011e600582640100000000620018cf6200015582021704565b604051600160a060020a038216907f6ae172837ea30b801fbfcdd4108aa1d5bf8ff775444fd70256b44e6bf3dfc3f690600090a250565b600160a060020a03811615156200016b57600080fd5b620001808282640100000000620001b0810204565b156200018b57600080fd5b600160a060020a0316600090815260209190915260409020805460ff19166001179055565b6000600160a060020a0382161515620001c857600080fd5b50600160a060020a03166000908152602091909152604090205460ff1690565b828054600181600116156101000203166002900490600052602060002090601f016020900481019282601f106200022b57805160ff19168380011785556200025b565b828001600101855582156200025b579182015b828111156200025b5782518255916020019190600101906200023e565b50620002699291506200026d565b5090565b6200028a91905b8082111562000269576000815560010162000274565b90565b6119d5806200029d6000396000f3006080604052600436106101195763ffffffff60e060020a60003504166306fdde03811461011e578063095ea7b3146101a857806318160ddd146101e057806323b872dd14610207578063313ce56714610231578063395093511461025c57806342966c681461028057806370a082311461029a578063715018a6146102bb57806379cc6790146102d05780638da5cb5b146102f45780638f32d59b1461032557806395d89b411461033a578063983b2d561461034f5780639865027514610370578063a457c2d714610385578063a9059cbb146103a9578063aa271e1a146103cd578063be45fd62146103ee578063dd62ed3e14610457578063f2fde38b1461047e578063f3fef3a31461049f578063f6368f8a146104c3575b600080fd5b34801561012a57600080fd5b5061013361056a565b6040805160208082528351818301528351919283929083019185019080838360005b8381101561016d578181015183820152602001610155565b50505050905090810190601f16801561019a5780820380516001836020036101000a031916815260200191505b509250505060405180910390f35b3480156101b457600080fd5b506101cc600160a060020a03600435166024356105f8565b604080519115158252519081900360200190f35b3480156101ec57600080fd5b506101f56106e7565b60408051918252519081900360200190f35b34801561021357600080fd5b506101cc600160a060020a03600435811690602435166044356106ed565b34801561023d57600080fd5b506102466107de565b6040805160ff9092168252519081900360200190f35b34801561026857600080fd5b506101cc600160a060020a03600435166024356107e7565b34801561028c57600080fd5b50610298600435610908565b005b3480156102a657600080fd5b506101f5600160a060020a0360043516610915565b3480156102c757600080fd5b50610298610930565b3480156102dc57600080fd5b50610298600160a060020a036004351660243561099a565b34801561030057600080fd5b506103096109a8565b60408051600160a060020a039092168252519081900360200190f35b34801561033157600080fd5b506101cc6109b7565b34801561034657600080fd5b506101336109c8565b34801561035b57600080fd5b50610298600160a060020a0360043516610a23565b34801561037c57600080fd5b50610298610a40565b34801561039157600080fd5b506101cc600160a060020a0360043516602435610a4b565b3480156103b557600080fd5b506101cc600160a060020a0360043516602435610a7f565b3480156103d957600080fd5b506101cc600160a060020a0360043516610ab7565b3480156103fa57600080fd5b50604080516020600460443581810135601f81018490048402850184019095528484526101cc948235600160a060020a0316946024803595369594606494920191908190840183828082843750949750610ad09650505050505050565b34801561046357600080fd5b506101f5600160a060020a0360043581169060243516610b06565b34801561048a57600080fd5b50610298600160a060020a0360043516610b31565b3480156104ab57600080fd5b50610298600160a060020a0360043516602435610b4d565b3480156104cf57600080fd5b50604080516020600460443581810135601f81018490048402850184019095528484526101cc948235600160a060020a031694602480359536959460649492019190819084018382808284375050604080516020601f89358b018035918201839004830284018301909452808352979a999881019791965091820194509250829150840183828082843750949750610e0a9650505050505050565b6006805460408051602060026001851615610100026000190190941693909304601f810184900484028201840190925281815292918301828280156105f05780601f106105c5576101008083540402835291602001916105f0565b820191906000526020600020905b8154815290600101906020018083116105d357829003601f168201915b505050505081565b6000600160a060020a0383161515610680576040805160e560020a62461bcd02815260206004820152603460248201527f5b417070726f7665204572726f725d205370656e646572206163636f756e742060448201527f63616e6e6f742062652030782061646472657373000000000000000000000000606482015290519081900360840190fd5b336000818152600260209081526040808320600160a060020a03881680855290835292819020869055805186815290519293927f8c5be1e5ebec7d5bd14f71427d1e84f3dd0314c0f7b2291e5b200ac8c7c3b925929181900390910190a350600192915050565b60035490565b6000606060006106fc8561112e565b1561076d5761070d86868685611136565b600160a060020a0387166000908152600260209081526040808320338452909152902054909150610744908563ffffffff61145716565b600160a060020a03871660009081526002602090815260408083203384529091529020556107d5565b6107798686868561146e565b600160a060020a03871660009081526002602090815260408083203384529091529020549091506107b0908563ffffffff61145716565b600160a060020a03871660009081526002602090815260408083203384529091529020555b95945050505050565b60085460ff1681565b6000600160a060020a038316151561086f576040805160e560020a62461bcd02815260206004820152603660248201527f5b416c6c6f77616e6365204572726f725d205370656e646572206163636f756e60448201527f742063616e6e6f74206265203078206164647265737300000000000000000000606482015290519081900360840190fd5b336000908152600260209081526040808320600160a060020a03871684529091529020546108a3908363ffffffff61162116565b336000818152600260209081526040808320600160a060020a0389168085529083529281902085905580519485525191937f8c5be1e5ebec7d5bd14f71427d1e84f3dd0314c0f7b2291e5b200ac8c7c3b925929081900390910190a350600192915050565b6109123382611633565b50565b600160a060020a031660009081526001602052604090205490565b6109386109b7565b151561094357600080fd5b60008054604051600160a060020a03909116907f8be0079c531659141344cd1fd0a4f28419497f9722a3daafe3b4186f6b6457e0908390a36000805473ffffffffffffffffffffffffffffffffffffffff19169055565b6109a482826116c9565b5050565b600054600160a060020a031690565b600054600160a060020a0316331490565b6007805460408051602060026001851615610100026000190190941693909304601f810184900484028201840190925281815292918301828280156105f05780601f106105c5576101008083540402835291602001916105f0565b610a2c33610ab7565b1515610a3757600080fd5b6109128161178b565b610a49336117d3565b565b336000908152600260209081526040808320600160a060020a03861684529091528120546108a3908363ffffffff61145716565b60006060610a8c8461112e565b15610aa457610a9d33858584611136565b9150610ab0565b610a9d3385858461146e565b5092915050565b6000610aca60058363ffffffff61181b16565b92915050565b6000610adb8461112e565b15610af357610aec33858585611136565b9050610aff565b610aec3385858561146e565b9392505050565b600160a060020a03918216600090815260026020908152604080832093909416825291909152205490565b610b396109b7565b1515610b4457600080fd5b61091281611852565b600081610b5984610915565b1015610bc2576040805160e560020a62461bcd028152602060048201526045602482015260008051602061196a833981519152604482015260008051602061198a833981519152606482015260da60020a6419995c995902608482015290519081900360a40190fd5b82600160a060020a0316638da5cb5b6040518163ffffffff1660e060020a028152600401602060405180830381600087803b158015610c0057600080fd5b505af1158015610c14573d6000803e3d6000fd5b505050506040513d6020811015610c2a57600080fd5b5051600160a060020a03163314610c9e576040805160e560020a62461bcd028152602060048201526045602482015260008051602061196a833981519152604482015260008051602061198a833981519152606482015260da60020a6419995c995902608482015290519081900360a40190fd5b82600160a060020a0316634e69d5606040518163ffffffff1660e060020a028152600401602060405180830381600087803b158015610cdc57600080fd5b505af1158015610cf0573d6000803e3d6000fd5b505050506040513d6020811015610d0657600080fd5b50516040805182815290519192507f43789b30e4c6d53e2735e5701207b0529b2cc229b1bb02b9691d39ea218da7d7919081900360200190a160018114610d97576040805160e560020a62461bcd02815260206004820152601d60248201527f636f6e7472616374206973206e6f742077697468726472617761626c65000000604482015290519081900360640190fd5b33600090815260016020526040902054610db7908363ffffffff61162116565b3360009081526001602052604080822092909255600160a060020a03851681522054610de9908363ffffffff61145716565b600160a060020a039093166000908152600160205260409020929092555050565b6000610e158561112e565b156111175783610e2433610915565b11610e8c576040805160e560020a62461bcd028152602060048201526045602482015260008051602061196a833981519152604482015260008051602061198a833981519152606482015260da60020a6419995c995902608482015290519081900360a40190fd5b610ea584610e9933610915565b9063ffffffff61145716565b33600090815260016020526040902055610ece84610ec287610915565b9063ffffffff61162116565b6001600087600160a060020a0316600160a060020a031681526020019081526020016000208190555084600160a060020a03166000836040516020018082805190602001908083835b60208310610f365780518252601f199092019160209182019101610f17565b6001836020036101000a0380198251168184511680821785525050505050509050019150506040516020818303038152906040526040518082805190602001908083835b60208310610f995780518252601f199092019160209182019101610f7a565b6001836020036101000a038019825116818451168082178552505050505050905001915050604051809103902060e060020a9004903387876040518563ffffffff1660e060020a0281526004018084600160a060020a0316600160a060020a03168152602001838152602001828051906020019080838360005b8381101561102b578181015183820152602001611013565b50505050905090810190601f1680156110585780820380516001836020036101000a031916815260200191505b50935050505060006040518083038185885af19350505050151561107857fe5b826040518082805190602001908083835b602083106110a85780518252601f199092019160209182019101611089565b51815160209384036101000a6000190180199092169116179052604080519290940182900382208a83529351939550600160a060020a038b16945033937f9b6aa1faccbd47218eb2870ae6411b374a3cf25c4285a37ef90bcb3c1fdde9ac9350918290030190a4506001611126565b6111233386868661146e565b90505b949350505050565b6000903b1190565b60008261114286610915565b116111aa576040805160e560020a62461bcd028152602060048201526045602482015260008051602061196a833981519152604482015260008051602061198a833981519152606482015260da60020a6419995c995902608482015290519081900360a40190fd5b600160a060020a0384161515611230576040805160e560020a62461bcd02815260206004820152602960248201527f5b5472616e73666572204572726f725d205f746f2063616e6e6f74206265203060448201527f7820616464726573730000000000000000000000000000000000000000000000606482015290519081900360840190fd5b61123d83610e9987610915565b600160a060020a03861660009081526001602052604090205561126383610ec286610915565b6001600086600160a060020a0316600160a060020a031681526020019081526020016000208190555083600160a060020a031663c0ee0b8a8685856040518463ffffffff1660e060020a0281526004018084600160a060020a0316600160a060020a0316815260200183815260200180602001828103825283818151815260200191508051906020019080838360005b8381101561130b5781810151838201526020016112f3565b50505050905090810190601f1680156113385780820380516001836020036101000a031916815260200191505b50945050505050600060405180830381600087803b15801561135957600080fd5b505af115801561136d573d6000803e3d6000fd5b5050604080518681529051600160a060020a038089169450891692507fddf252ad1be2c89b69c2b068fc378daa952ba7f163c4a11628f55a4df523b3ef9181900360200190a3816040518082805190602001908083835b602083106113e35780518252601f1990920191602091820191016113c4565b51815160209384036101000a6000190180199092169116179052604080519290940182900382208983529351939550600160a060020a038a811695508b16937f9b6aa1faccbd47218eb2870ae6411b374a3cf25c4285a37ef90bcb3c1fdde9ac9350918290030190a4506001949350505050565b6000808383111561146757600080fd5b5050900390565b60008261147a86610915565b116114e2576040805160e560020a62461bcd028152602060048201526045602482015260008051602061196a833981519152604482015260008051602061198a833981519152606482015260da60020a6419995c995902608482015290519081900360a40190fd5b600160a060020a0384161515611568576040805160e560020a62461bcd02815260206004820152602960248201527f5b5472616e73666572204572726f725d205f746f2063616e6e6f74206265203060448201527f7820616464726573730000000000000000000000000000000000000000000000606482015290519081900360840190fd5b61157583610e9987610915565b600160a060020a03861660009081526001602052604090205561159b83610ec286610915565b600160a060020a0380861660008181526001602090815260409182902094909455805187815290519193928916927fddf252ad1be2c89b69c2b068fc378daa952ba7f163c4a11628f55a4df523b3ef92918290030190a381604051808280519060200190808383602083106113e35780518252601f1990920191602091820191016113c4565b600082820183811015610aff57600080fd5b600354611646908263ffffffff61145716565b600355600160a060020a038216600090815260016020526040902054611672908263ffffffff61145716565b600160a060020a0383166000818152600160209081526040808320949094558351858152935191937fddf252ad1be2c89b69c2b068fc378daa952ba7f163c4a11628f55a4df523b3ef929081900390910190a35050565b600160a060020a03821660009081526002602090815260408083203384529091529020546116fd908263ffffffff61145716565b600160a060020a038316600090815260026020908152604080832033845290915290205561172b8282611633565b600160a060020a0382166000818152600260209081526040808320338085529083529281902054815190815290519293927f8c5be1e5ebec7d5bd14f71427d1e84f3dd0314c0f7b2291e5b200ac8c7c3b925929181900390910190a35050565b61179c60058263ffffffff6118cf16565b604051600160a060020a038216907f6ae172837ea30b801fbfcdd4108aa1d5bf8ff775444fd70256b44e6bf3dfc3f690600090a250565b6117e460058263ffffffff61191d16565b604051600160a060020a038216907fe94479a9f7e1952cc78f2d6baab678adc1b772d936c6583def489e524cb6669290600090a250565b6000600160a060020a038216151561183257600080fd5b50600160a060020a03166000908152602091909152604090205460ff1690565b600160a060020a038116151561186757600080fd5b60008054604051600160a060020a03808516939216917f8be0079c531659141344cd1fd0a4f28419497f9722a3daafe3b4186f6b6457e091a36000805473ffffffffffffffffffffffffffffffffffffffff1916600160a060020a0392909216919091179055565b600160a060020a03811615156118e457600080fd5b6118ee828261181b565b156118f857600080fd5b600160a060020a0316600090815260209190915260409020805460ff19166001179055565b600160a060020a038116151561193257600080fd5b61193c828261181b565b151561194757600080fd5b600160a060020a0316600090815260209190915260409020805460ff1916905556005b5472616e73666572204572726f725d2042616c616e6365206d7573742062652067726561746572207468656e20616d6f756e7420746f206265207472616e73a165627a7a7230582011446ee260fcb2c1ca8e889bd7c4436a3a7491a2b32c7c9ace58678f66e860e50029",
  "source": "pragma solidity ^0.4.24;\n\nimport \"./ERC223Mintable.sol\";\nimport \"./ERC223Burnable.sol\";\n\n/**\n * @title ERC223 Token\n *\n * @dev Lendflo implementation of ERC223 Token originally suggested by: \n * https://github.com/Dexaran/ERC223-token-standard\n * and strongly based on standard ERC20 Token:\n * https://github.com/OpenZeppelin/openzeppelin-solidity/blob/master/contracts/token/ERC20/ERC20.sol\n * Lendflo ERC223 implements light fallback function that is not pure\n * and therefore allows to execute other functions in the contract after the transfer of funds.\n */\ncontract LDFToken is ERC223Mintable, ERC223Burnable{\n\n  string public name = \"Lendflo Digital Fiat\";\n  string public symbol = \"LDF\";\n  uint8 public decimals = 0;\n\n  constructor() public {}\n}",
  "sourcePath": "/home/ubuntu/Lendflo-LDF-ERC223/contracts/LDFToken.sol",
  "compiler": {
    "name": "solc",
    "version": "0.4.24+commit.e67f0147.Linux.g++"
  },
  "schemaVersion": "3.0.1",
  "updatedAt": "2019-01-28T15:36:07.740Z",
  "devdoc": {
    "methods": {
      "allowance(address,address)": {
        "details": "Function to check the amount of tokens that an owner allowed to a spender.",
        "params": {
          "owner": "address The address which owns the funds.",
          "spender": "address The address which will spend the funds."
        },
        "return": "A uint256 specifying the amount of tokens still available for the spender."
      },
      "approve(address,uint256)": {
        "details": "Approve the passed address to spend the specified amount of tokens on behalf of msg.sender. Beware that changing an allowance with this method brings the risk that someone may use both the old and the new allowance by unfortunate transaction ordering. One possible solution to mitigate this race condition is to first reduce the spender's allowance to 0 and set the desired value afterwards: https://github.com/ethereum/EIPs/issues/20#issuecomment-263524729",
        "params": {
          "spender": "The address which will spend the funds.",
          "value": "The amount of tokens to be spent."
        }
      },
      "balanceOf(address)": {
        "details": "Function to return a balance of the address.",
        "return": "A uint256 specifying the amount of tokens by the spender."
      },
      "burn(uint256)": {
        "details": "Burns a specific amount of tokens.",
        "params": {
          "value": "The amount of token to be burned."
        }
      },
      "burnFrom(address,uint256)": {
        "details": "Burns a specific amount of tokens from the target address and decrements allowance",
        "params": {
          "from": "address The address which you want to send tokens from",
          "value": "uint256 The amount of token to be burned"
        }
      },
      "decreaseAllowance(address,uint256)": {
        "details": "Decrease the amount of tokens that an owner allowed to a spender. approve should be called when allowed_[spender] == 0. To decrement allowed value is better to use this function to avoid 2 calls (and wait until the first transaction is mined) From MonolithDAO Token.sol",
        "params": {
          "spender": "The address which will spend the funds.",
          "subtractedValue": "The amount of tokens to decrease the allowance by."
        }
      },
      "increaseAllowance(address,uint256)": {
        "details": "Increase the amount of tokens that an owner allowed to a spender. approve should be called when allowed_[_spender] == 0. To increment allowed value is better to use this function to avoid 2 calls (and wait until the first transaction is mined) From MonolithDAO Token.sol",
        "params": {
          "addedValue": "The amount of tokens to increase the allowance by.",
          "spender": "The address which will spend the funds."
        }
      },
      "isOwner()": {
        "return": "true if `msg.sender` is the owner of the contract."
      },
      "owner()": {
        "return": "the address of the owner."
      },
      "renounceOwnership()": {
        "details": "Allows the current owner to relinquish control of the contract."
      },
      "totalSupply()": {
        "details": "Function to access total supply of tokens ",
        "return": "A uint256 specifying the total amount of coins in circulation."
      },
      "transfer(address,uint256)": {
        "details": "Public function that allows to transfer tokens. Function implements recognition if the recepeient is a contract or not and executes different subfunctions.",
        "params": {
          "to": "Address of the recepient of the tokens.",
          "value": "The amount of the tokens to be transfered."
        },
        "return": "A bool defining if the transfer was succesful."
      },
      "transfer(address,uint256,bytes)": {
        "details": "Public function that allows to transfer tokens with additional data.  Function implements recognition if the recepeient is a contract or not and executes different subfunctions.",
        "params": {
          "data": "Additional data to be send to the recepient.",
          "to": "Address of the recepient of the tokens.",
          "value": "The amount of the tokens to be transfered."
        },
        "return": "A bool defining if the transfer was succesful."
      },
      "transfer(address,uint256,bytes,string)": {
        "details": "Public function that allows to transfer tokens with additional data  and customized fallback.",
        "params": {
          "custom_fallback": "Customized fallback that is executed after the transfer of the tokens.",
          "data": "Additional data to be send to the recepient.",
          "to": "Address of the recepient of the tokens.",
          "value": "The amount of the tokens to be transfered."
        },
        "return": "A bool defining if the transfer was succesful."
      },
      "transferFrom(address,address,uint256)": {
        "details": "Transfer tokens from one address to another",
        "params": {
          "from": "address The address which you want to send tokens from",
          "to": "address The address which you want to transfer to",
          "value": "uint256 the amount of tokens to be transferred"
        }
      },
      "transferOwnership(address)": {
        "details": "Allows the current owner to transfer control of the contract to a newOwner.",
        "params": {
          "newOwner": "The address to transfer ownership to."
        }
      },
      "withdraw(address,uint256)": {
        "details": "withdraw tokens from the contract only by owner and only in withdrawable state",
        "params": {
          "_amount": "amount of tokens to withdraw",
          "_holder": "contract that hold tokens"
        }
      }
    },
    "title": "ERC223 Token"
  },
  "userdoc": {
    "methods": {
      "renounceOwnership()": {
        "notice": "Renouncing to ownership will leave the contract without an owner. It will not be possible to call the functions with the `onlyOwner` modifier anymore."
      }
    }
  }
}