{
  "contractName": "OwnableInterfaceId",
  "abi": [
    {
      "constant": true,
      "inputs": [],
      "name": "getInterfaceId",
      "outputs": [
        {
          "name": "",
          "type": "bytes4"
        }
      ],
      "payable": false,
      "stateMutability": "pure",
      "type": "function"
    }
  ],
  "bytecode": "0x608060405234801561001057600080fd5b5060da8061001f6000396000f300608060405260043610603e5763ffffffff7c01000000000000000000000000000000000000000000000000000000006000350416636b9241fc81146043575b600080fd5b348015604e57600080fd5b506055608a565b604080517fffffffff000000000000000000000000000000000000000000000000000000009092168252519081900360200190f35b7f813ae5ed00000000000000000000000000000000000000000000000000000000905600a165627a7a72305820c544298d4d28b7b5f427e22b35f042973c74438971902a143b2ce22a86d767460029",
  "source": "pragma solidity ^0.4.24;\n\nimport \"./Ownable.sol\";\n\n/**\n * @title Ownable interface id calculator.\n * @dev See the EIP165 specification for more information:\n * https://github.com/ethereum/EIPs/blob/master/EIPS/eip-165.md#specification\n */\ncontract OwnableInterfaceId {\n    function getInterfaceId() public pure returns (bytes4) {\n        Ownable i;\n        return i.owner.selector ^ i.isOwner.selector ^ i.renounceOwnership.selector ^ i.transferOwnership.selector;\n    }\n}",
  "sourcePath": "/home/ubuntu/Lendflo-LDF-ERC223/contracts/OwnableInterfaceId.sol",
  "compiler": {
    "name": "solc",
    "version": "0.4.24+commit.e67f0147.Linux.g++"
  },
  "schemaVersion": "3.0.1",
  "updatedAt": "2019-02-12T17:53:42.214Z",
  "devdoc": {
    "methods": {},
    "title": "Ownable interface id calculator."
  },
  "userdoc": {
    "methods": {}
  }
}