{
  "contractName": "OwnableInterfaceId",
  "abi": [
    {
      "constant": true,
      "inputs": [],
      "name": "getInterfaceId",
      "outputs": [
        {
          "name": "",
          "type": "bytes4"
        }
      ],
      "payable": false,
      "stateMutability": "pure",
      "type": "function"
    }
  ],
  "bytecode": "0x608060405234801561001057600080fd5b506101db806100206000396000f300608060405260043610610041576000357c0100000000000000000000000000000000000000000000000000000000900463ffffffff1680636b9241fc14610046575b600080fd5b34801561005257600080fd5b5061005b6100af565b60405180827bffffffffffffffffffffffffffffffffffffffffffffffffffffffff19167bffffffffffffffffffffffffffffffffffffffffffffffffffffffff1916815260200191505060405180910390f35b6000808073ffffffffffffffffffffffffffffffffffffffff1663f2fde38b90507c0100000000000000000000000000000000000000000000000000000000028173ffffffffffffffffffffffffffffffffffffffff1663715018a690507c0100000000000000000000000000000000000000000000000000000000028273ffffffffffffffffffffffffffffffffffffffff16638f32d59b90507c0100000000000000000000000000000000000000000000000000000000028373ffffffffffffffffffffffffffffffffffffffff16638da5cb5b90507c010000000000000000000000000000000000000000000000000000000002181818915050905600a165627a7a7230582096b39b97191edb8d9c7ac83a680d207917eecafa98943cc4ee25ba5d3979067d0029",
  "source": "pragma solidity ^0.4.24;\r\n\r\nimport \"./Ownable.sol\";\r\n\r\n/**\r\n * @title Ownable interface id calculator.\r\n * @dev See the EIP165 specification for more information:\r\n * https://github.com/ethereum/EIPs/blob/master/EIPS/eip-165.md#specification\r\n */\r\ncontract OwnableInterfaceId {\r\n    function getInterfaceId() public pure returns (bytes4) {\r\n        Ownable i;\r\n        return i.owner.selector ^ i.isOwner.selector ^ i.renounceOwnership.selector ^ i.transferOwnership.selector;\r\n    }\r\n}",
  "sourcePath": "C:\\Users\\Lendflo\\Documents\\GitHub\\Lendflo-Commodo\\open-sourcing\\contracts\\OwnableInterfaceId.sol",
  "compiler": {
    "name": "solc",
    "version": "0.4.24+commit.e67f0147.Emscripten.clang"
  },
  "schemaVersion": "2.0.1",
  "updatedAt": "2018-12-13T10:38:16.915Z"
}