{
  "contractName": "OwnableInterfaceId",
  "abi": [
    {
      "constant": true,
      "inputs": [],
      "name": "getInterfaceId",
      "outputs": [
        {
          "name": "",
          "type": "bytes4"
        }
      ],
      "payable": false,
      "stateMutability": "pure",
      "type": "function"
    }
  ],
  "bytecode": "0x608060405234801561001057600080fd5b506101db806100206000396000f300608060405260043610610041576000357c0100000000000000000000000000000000000000000000000000000000900463ffffffff1680636b9241fc14610046575b600080fd5b34801561005257600080fd5b5061005b6100af565b60405180827bffffffffffffffffffffffffffffffffffffffffffffffffffffffff19167bffffffffffffffffffffffffffffffffffffffffffffffffffffffff1916815260200191505060405180910390f35b6000808073ffffffffffffffffffffffffffffffffffffffff1663f2fde38b90507c0100000000000000000000000000000000000000000000000000000000028173ffffffffffffffffffffffffffffffffffffffff1663715018a690507c0100000000000000000000000000000000000000000000000000000000028273ffffffffffffffffffffffffffffffffffffffff16638f32d59b90507c0100000000000000000000000000000000000000000000000000000000028373ffffffffffffffffffffffffffffffffffffffff16638da5cb5b90507c010000000000000000000000000000000000000000000000000000000002181818915050905600a165627a7a72305820962d84dca0fdc78cfc93e994c7b9902d4d0d6fe35f4d4424ef576998f23904d80029",
  "source": "pragma solidity ^0.4.24;\n\nimport \"./Ownable.sol\";\n\n/**\n * @title Ownable interface id calculator.\n * @dev See the EIP165 specification for more information:\n * https://github.com/ethereum/EIPs/blob/master/EIPS/eip-165.md#specification\n */\ncontract OwnableInterfaceId {\n    function getInterfaceId() public pure returns (bytes4) {\n        Ownable i;\n        return i.owner.selector ^ i.isOwner.selector ^ i.renounceOwnership.selector ^ i.transferOwnership.selector;\n    }\n}",
  "sourcePath": "/home/ec2-user/Lendflo-LDF-ERC223/contracts/OwnableInterfaceId.sol",
  "compiler": {
    "name": "solc",
    "version": "0.4.24+commit.e67f0147.Emscripten.clang"
  },
  "schemaVersion": "2.0.1",
  "updatedAt": "2018-12-21T10:19:39.973Z"
}