{
  "contractName": "Test",
  "abi": [
    {
      "constant": false,
      "inputs": [],
      "name": "SimpleEnum",
      "outputs": [],
      "payable": false,
      "stateMutability": "nonpayable",
      "type": "function"
    },
    {
      "constant": false,
      "inputs": [
        {
          "name": "_value",
          "type": "uint256"
        }
      ],
      "name": "setValues",
      "outputs": [],
      "payable": false,
      "stateMutability": "nonpayable",
      "type": "function"
    },
    {
      "constant": true,
      "inputs": [],
      "name": "getValue",
      "outputs": [
        {
          "name": "",
          "type": "uint256"
        }
      ],
      "payable": false,
      "stateMutability": "view",
      "type": "function"
    }
  ],
  "bytecode": "0x608060405234801561001057600080fd5b5061011a806100206000396000f30060806040526004361060525763ffffffff7c01000000000000000000000000000000000000000000000000000000006000350416632096525581146057578063e26d147414607b578063e43d0bf9146092575b600080fd5b348015606257600080fd5b50606960a4565b60408051918252519081900360200190f35b348015608657600080fd5b50609060043560ba565b005b348015609d57600080fd5b50609060e2565b6000805460ff16600281111560b557fe5b905090565b80600281111560c557fe5b6000805460ff1916600183600281111560da57fe5b021790555050565b6000805460ff191690555600a165627a7a72305820cd81c83c4fd7bbec30fc7ef38c87f36bfa6bf2dbe71f37655ecf841348faad060029",
  "source": "pragma solidity ^0.4.24;\r\n\r\n\r\ncontract Test {\r\n\r\n    enum LCTStatues { Locked, Withdrawable, Repayed}\r\n    LCTStatues status;\r\n\r\n    function SimpleEnum() public {\r\n        status = LCTStatues.Locked;\r\n    }\r\n\r\n    function setValues(uint _value) public {\r\n        status = LCTStatues(_value);\r\n    }\r\n\r\n    function getValue() public constant returns (uint){\r\n        return uint(status);\r\n    }\r\n\r\n}",
  "sourcePath": "/home/ubuntu/Lendflo-LDF-ERC223/contracts/Test.sol",
  "compiler": {
    "name": "solc",
    "version": "0.4.24+commit.e67f0147.Linux.g++"
  },
  "schemaVersion": "3.0.1",
  "updatedAt": "2019-02-12T17:53:42.218Z",
  "devdoc": {
    "methods": {}
  },
  "userdoc": {
    "methods": {}
  }
}